:0600000002006B020E3845
:03000B000215EAF1
:03001300020E8B4F
:01001B0032B2
:03002300020DA02B
:03002B00021E1E94
:01003300329A
:03003B00020EDED4
:03004300020D614A
:01004B003282
:03005300020DECAF
:01005B003272
:03006300021E1C5E
:03006600020F3254
:02006900E4733E
:0D006B00758157123337E58260030200668D
:100078007941E94400601B7A0190352A78A275A07D
:1000880001E493F2A308B8000205A0D9F4DAF275E6
:02009800A0FFC7
:06009A00E478FFF6D8FD3A
:1000A0007800E84400600A799475A000E4F309D868
:1000B000FC780EE84401600C7902900094E4F0A30F
:0400C000D8FCD9FA95
:1000C4009000CDE4F09000D1E4F09000D204F090E0
:1000D40000D3E4F09000D4F09000D5E4F0A3F0A3B2
:1000E400F0A3F09000D904F0E4A3F09000DB04F056
:0300F400E4A3F092
:0E00F8007808E4F608F608F608F6780C7600AC
:02010600C20233
:02010800C2042F
:02010A00C2052C
:03010C0002006688
:100110009000DD7401F0758211120FA690338FE408
:1001200093FE7401939000DD7402F08E82120FA68C
:100130007E007F00C3EE9404EF64809480502CEE28
:100140002EFCEF33FDEC2491F582ED3433F583E49E
:1001500093FD9000DDE4F08D82C007C006120FA66B
:10016000D006D0070EBE00CC0F80C92212166AAC92
:1001700082AD83AEF0FF9001A4E0F8A3E0F9A3E024
:10018000FAA3E0FBECC398F522ED99F523EE9AF57E
:1001900024EF9BF525903399E493F8740193F97457
:1001A0000293FA740393FBC3E52298E52399E524AF
:1001B0009AE5259B40119001A4ECF0EDA3F0EEA38D
:1001C000F0EFA3F0020BA8221201CE0203997E00E9
:1001D0007F00C3EE9404EF64809480400122EE2EF1
:1001E000FCEF33FDEC2491F582ED3433F583E49399
:1001F000F582C007C006121122AD82D006D0078D4D
:10020000047D009000AEECF0EDA3F0C3EC9405ED9E
:100210006480948050099000AEE4F0A3F08018C38D
:1002200074FA9C74808DF063F08095F05009900012
:10023000AE74FFF0E4A3F0EE2EFCEF33FDEC24A847
:10024000F582ED3401F583E0FCA3E0FD9000AEE023
:10025000FAA3E0FBEAC39CF8EB9DF9C3E498748031
:1002600089F063F08095F05009EAC39CF8EB9DF9A2
:10027000800EEAC39CFCEB9DFDC3E49CF8E49DF971
:10028000C3740298748089F063F08095F0505BEE3F
:1002900024B0F582EF3401F5837401F0EE2EFCEF0B
:1002A00033FDEC24A8FCED3401FD9000AEE0FAA390
:1002B000E0FB8C828D83EAF0EBA3F09001B4E4F0D4
:1002C000A3F0C007C00612166AAA82AB83ACF0FD89
:1002D000D006D0079001B8EAF0EBA3F0ECA3F0ED64
:1002E000A3F09001BCEEF0EFA3F0EE2EFCEF33FD97
:1002F000EC24A6FCED3400FD9000AEE0FAA3E0FB98
:100300008A828B83C007C006C005C00412032CAAD2
:1003100082AB83D004D005D006D0078C828D83EACF
:10032000F0EBA3F00EBE00010F0201D2AF83E58215
:100330009000B0F0EFA3F09000B0E0FEA3E0FF8EDD
:10034000828F8312237AAC82AD83AEF0FFC004C0EB
:1003500005C006C00790606075F0807440120CBE46
:10036000AC82AD83AEF0FFE58124FCF581E4C0E012
:10037000C0E0C0E0743FC0E08C828D838EF0EF124D
:100380001E20AC82AD83AEF0FFE58124FCF5818CAC
:10039000828D838EF0EF0223879000C6E4F0A3F0F5
:1003A0007E007F00C3EE9404EF64809480400302DB
:1003B0000444EE4F60209000C6E0FCA3E0FD9000F6
:1003C000C674012CF0E43DA3F0EC24B2F582ED34C8
:1003D00000F583747CF0EE2EFCEF33FDEC24A6F5E3
:1003E00082ED3400F583E0F526A3E0F5279000C602
:1003F000E0FAA3E0FBEA24B2F8EB3400F97D00C098
:1004000007C006C003C002C026C02774B9C0E0748C
:1004100033C0E07480C0E0C000C001C00512229467
:10042000AC82AD83E58124F8F581D002D003D006FB
:10043000D0079000C6EC2AF0ED3BA3F00EBE000101
:100440000F0203A49000C6E0FEA3E0FFEE24B2F585
:1004500082EF3400F583E4F09000B275F0001212E0
:100460007F901F9A0213D212166AAC82AD83AEF04F
:10047000FF9001B4E0F5F0A3E045F070429001B8C0
:10048000E0F8A3E0F9A3E0FAA3E0FBECC398FCEDED
:1004900099FDEE9AFEEF9BFFC3EC94D0ED9407EE2E
:1004A0009400EF940040189001B6E0FEA3E0FF90A6
:1004B00001B4EEF0EFA3F09001BC74FFF0A3F09054
:1004C00001B4E0FEA3E0FFBE0005BF00028018BE3D
:1004D0000105BF00028013BE0205BF0002800EBEF0
:1004E0000311BF000E80090205660208C902095DFA
:1004F00002079022E5829000CCF09000CBE0FF90C4
:1005000000C8E0F5F0EFA4AEF08E059000C9E0F56C
:10051000F0EFA4AEF08E049000CAE0F5F0EFA4AEC8
:10052000F08E079000CCE0FE7B00C007C005C00441
:10053000C006C003900003121D7EAB82AE831581FE
:100540001581D004D005D007EB2494FBEE3400FED7
:100550008B828E83ECF08B828E83A3EDF08B828E68
:1005600083A3A3EFF0229001BCE0FEA3E0FFC0074D
:10057000C006C006C007900003121D7EAC82AD838A
:1005800015811581D006D007EC24ADFCED3433FD88
:100590008C828D83E493FB8C828D83A3E493FA8C0D
:1005A000828D83A3A3E493FDEE2EFEEF33FFEE24B2
:1005B000A6F582EF3400F583E0FEA3E0FFC007C09C
:1005C00006C005C003C00274AAC0E0E4C0E08E8289
:1005D0008F831231D785822885832915811581D093
:1005E00002D003D005D006D007C005C003C00274F6
:1005F000AAC0E0E4C0E08E828F83122FA1AE82AF4A
:1006000083158115818E828F8312237AA882AC8311
:10061000AEF0FFE4C0E0C0E0742AC0E07443C0E084
:1006200088828C838EF0EF122EBAA982AC83AEF052
:10063000FFE58124FCF581D002D003D0058B2E8A02
:100640002A8D2BC005C003C002C001C004C006C073
:1006500007900000E4F5F07443120CBEA982AC834D
:10066000AEF0FFE58124FCF581D002D003D005E493
:10067000F52CF52DC3E52C9406E52D64809480407F
:100680000302077BC3E52C9528E52D64808529F0BE
:1006900063F08095F0503BA82C9000C8EBF09000E0
:1006A000C9EAF09000CAEDF09000CB7480F0888227
:1006B000C007C006C005C004C003C002C0011204C8
:1006C000F4D001D002D003D004D005D006D0070268
:1006D0000770E528B52C65E529B52D60C005AD2C62
:1006E00089828C838EF0EFC007C006C005C004C0AD
:1006F00003C002C001122F99A882D001D002D003FA
:10070000D004D0059000C8E52EF09000C9E52AF08D
:100710009000CAE52BF09000CBE8F08D82C005C0B8
:1007200004C003C002C0011204F4D001D002D003FF
:10073000D004D005D006D007D0058034A82C900076
:10074000C8E4F09000C9F09000CAF09000CBF088A7
:1007500082C007C006C005C004C003C002C00112A9
:1007600004F4D001D002D003D004D005D006D007C5
:10077000052CE4B52C02052D0206747E947F007DC5
:10078000007C004305128E828F838DF0EC0223BB28
:100790007E007F00C3EE9406EF64809480400302E5
:1007A000088E9000CDE0FD7C00C007C006C005C0EB
:1007B00004C006C00790002A121D7EAA82AB8315D2
:1007C000811581D004D005EA2DFDEB3CFC74FFC0FF
:1007D000E0E4C0E08D828C83122FA1AC82AD831542
:1007E000811581D006D007BC5500501F8C05ED75D2
:1007F000F003A49000CED394FFF4F09000CFEC75FA
:10080000F003A4F09000D0E4F08048BCAA0050258A
:100810008C05ED24ABFD9000CEE4F08D03EB75F07C
:1008200003A49000CFD394FFF4F09000D0ED75F0C6
:1008300003A4F0801EEC2456FC9000CE75F003A4B7
:10084000F09000CFE4F0EC75F003A49000D0D394C6
:10085000FFF4F08E059000CEE0FC9000CFE0FB901E
:1008600000D0E0FA9000C8ECF09000C9EBF09000E6
:10087000CAEAF09000CB7440F08D82C007C0061227
:1008800004F4D006D0070EBE00010F0207947E9438
:100890007F007D007C004305128E828F838DF0ECFB
:1008A0001223BB9000CDE0FF7E000FBF00010E744D
:1008B000FFC0E0E4C0E08F828E83122FA1AE8215CC
:1008C0008115819000CDEEF0229000D2E06015906D
:1008D00000D1E02401F0E0FFBFFF0040169000D2FD
:1008E000E4F0800F9000D1E014F0E070069000D2A8
:1008F0007401F09000D1E0FF7E00C007C0069000B8
:10090000C0121D7EAF83158115817D007E00C3ED71
:100910009406EE64809480502F8D049000C8E4F01B
:100920009000C914F09000CA7478F09000CBEFF0FA
:100930008C82C007C006C0051204F4D005D006D0D2
:10094000070DBD00C90E80C67E947F007D007C002F
:100950004305128E828F838DF0EC0223BB9000D46E
:10096000E02401F0E0FFBF0800402C9000D4E4F048
:100970009000D3E0FF7E000FBF00010E7406C0E0C0
:10098000E4C0E08F828E83122FA1AE82AF831581E7
:1009900015819000D3EEF07E007F00C3EE9406EF49
:1009A000648094804003020A5E9000D3E0FC7D00E6
:1009B000EEB5042DEFB505298E039000C874FFF045
:1009C0009000C97446F09000CAE4F09000CB7480A7
:1009D000F08B82C007C0061204F4D006D007020ACA
:1009E0005674052CFCE43DFDC007C0067406C0E04B
:1009F000E4C0E08C828D83122FA1AC82AD8315817F
:100A00001581D006D007EEB5042CEFB505288E056C
:100A10009000C874FFF09000C97414F09000CAE40C
:100A2000F09000CB7420F08D82C007C0061204F451
:100A3000D006D00780208E059000C8E4F09000C951
:100A4000F09000CAF09000CBF08D82C007C0061273
:100A500004F4D006D0070EBE00010F02099B7E945D
:100A60007F007D007C004305128E828F838DF0EC29
:100A70000223BB9001B6E0FEA3E0FFBE011DBF0054
:100A80001A9001B67402F0E4A3F09033BC75F080C4
:100A900012127F901F9A1213D28038BE021DBF001F
:100AA0001A9001B67403F0E4A3F09033C575F0809A
:100AB00012127F901F9A1213D280189001B67401FF
:100AC000F0E4A3F09033D075F08012127F901F9A5B
:100AD0001213D29001B6E0FEA3E0FF9001B4EEF055
:100AE000EFA3F09001BC74FFF0A3F022020AEF1212
:100AF000166AAC82AD83AEF0FF90338FE493FA7444
:100B000001938A82C007C006C005C00412105DAB05
:100B100082D004D005D006D0078B027B009000D98C
:100B2000E0F8A3E0F9EAB50006EBB5010280169003
:100B300000D5ECF0EDA3F0EEA3F0EFA3F09000D918
:100B4000EAF0EBA3F0C002C0039000D5E0F8A3E008
:100B5000F9A3E0FAA3E0FBECC398FCED99FDEE9A53
:100B6000FEEF9BFF90339DE493F8740193F97402B8
:100B700093FA740393FBC3EC98ED99EE9AEF9BD034
:100B800003D00240229000DBE0FEA3E0FFEAB506BE
:100B900005EBB50701229000DBEAF0EBA3F0BA0108
:100BA00006BB0003020A732212166AAC82AD83AE42
:100BB000F0FF7A007B00C3EA9403EB6480948040EA
:100BC0000122EA2AF531EB33F532E5312531F531F1
:100BD000E53233F532E53124BEF52FE5323401F547
:100BE00030C002C003852F82853083E0F8A3E0F98E
:100BF000A3E0FAA3E0FBECC398F533ED99F534EEEE
:100C00009AF535EF9BF536E53124A1F582E53234CE
:100C100033F583E493F8A3E493F9A3E493FAA3E40C
:100C200093FBC3E53398E53499E5359AE5369BD0D7
:100C300003D0025003020CB6852F82853083ECF07E
:100C4000EDA3F0EEA3F0EFA3F0BA0005BB00028025
:100C500010BA0105BB00028025BA025ABB005780BA
:100C60003AC007C006C005C004C003C0021201C8D4
:100C7000D002D003D004D005D006D0078038C007FA
:100C8000C006C005C004C003C002120467D002D071
:100C900003D004D005D006D007801BC007C006C013
:100CA00005C004C003C002120AECD002D003D00475
:0E0CB000D005D006D0070ABA00010B020BB621
:100CBE00120F45BC0003022400EF60FA30D502B2D9
:100CCE00D1E583B4FF03022416E582B4FF030224A8
:100CDE0016258340072482400B02240024831450DF
:100CEE0003022416F582EA8DF0A4A8F0EA8EF0A491
:100CFE0028F8E435F0F9EB8DF0A428E935F0F9E4A5
:100D0E0033CA8FF0A429F9EA35F0FAEBF88EF0A485
:100D1E0029F9EA35F0FAE433FBEC8DF0A429F9EA6F
:100D2E0035F0FAE43BFBE88FF0A42AFAEB35F0FB42
:100D3E00E433CCFD8EF0A42AFAEB35F0FBE43CFC58
:100D4E00ED8FF0A42BFBEC35F0FC20E703120F73B4
:030D5E000223DF8E
:100D6100C021C0E0C0F0C082C083C007C006C0057A
:100D7100C004C003C002C001C000C0D075D00012C1
:100D81001C56D0D0D000D001D002D003D004D00561
:100D9100D006D007D083D082D0F0D0E0D02132C0AD
:100DA10021C0E0C0F0C082C083C007C006C005C03A
:100DB10004C003C002C001C000C0D075D00030988B
:100DC100051230BBC2983099051230FBC299D0D0C0
:100DD100D000D001D002D003D004D005D006D00776
:100DE100D083D082D0F0D0E0D02132C021C0E0C089
:100DF100F0C082C083C007C006C005C004C003C0E4
:100E010002C001C000C0D075D00030C00512314908
:100E1100C2C030C105123189C2C1D0D0D000D001C9
:100E2100D002D003D004D005D006D007D083D08221
:100E3100D0F0D0E0D02132C021C0E0C0F0C082C0EB
:100E410083C007C006C005C004C003C002C001C002
:100E510000C0D075D0009001D7E0FEA3E0FFC0072D
:100E6100C0068E828F83120069D006D007D0D0D001
:100E710000D001D002D003D004D005D006D007D0D5
:100E810083D082D0F0D0E0D02132C021C0E0C0F0C8
:100E9100C082C083C007C006C005C004C003C00231
:100EA100C001C000C0D075D0009001D9E0FEA3E020
:100EB100FFC007C0068E828F83120069D006D0075B
:100EC100D0D0D000D001D002D003D004D005D006BC
:100ED100D007D083D082D0F0D0E0D02132C021C061
:100EE100E0C0F0C082C083C007C006C005C004C016
:100EF10003C002C001C000C0D075D0009001CAE09B
:100F0100FEA3E04E600E9001CAE0F8A3E0F58388ED
:100F110082120069D0D0D000D001D002D003D00419
:100F2100D005D006D007D083D082D0F0D0E0D02138
:100F31003212179312011012016C121F7180F87591
:030F410082002209
:100F4500AA82AB83A2F73392D1F5826002D2F7ACC5
:100F5500F0E58124F9F8E6FD08E6FE0886F008E6E6
:0E0F6500A2F73392D5F5836002D2F7AFF022E7
:100F73007804EC7011E58224F8500AF582E4C9CABA
:100F8300CBFCD8EF22EC7820058220E713D5820131
:100F930022C3E933F9EA33FAEB33FBEC33FCD8EA47
:100FA300158222E582FF90342D93FEEF9034059352
:100FB300FF7001229000DDE0FD701BBF0209EEF41B
:100FC300FC5292EC529322BF0402800122EEF4FC05
:100FD3005296EC529722BD0214BF0207EE4292EEE4
:100FE300429322BF0439EE4296EE429722BD011688
:100FF300BF0208EEF45292EE429322BF0421EEF4B4
:101003005296EE429722BD0316BF0208EE4292EEBD
:10101300F4529322BF0408EE4296EEF4FE52972256
:10102300AF82BF0102800FBF02028013BF030280A1
:1010330017BF0425801BE5C620E21E539DFB22E556
:10104300C620E315539DF722E5C630E20C539DFB02
:1010530022E5C630E303539DF722E582FF9033DD9B
:1010630093FEEF90342D93FDEF90340593FF7003BF
:10107300F58222EE600D8E82C007C005121023D0C8
:1010830005D0077E00BF0202800ABF03028009BFAA
:10109300040C8008AE908006AEA08002AEB0ED5E78
:1010A30060047582012275820022E582FF9033DDA0
:1010B30093FEEF90342D93FDEF90340593FFEE6094
:1010C3000D8E82C007C005121023D005D007A2AF32
:1010D300E433FEC2AFBF0202800ABF03028017BF20
:1010E300043680249000DEE07007EDF4FF52908018
:1010F30027ED429080229000DEE07007EDF4FF526E
:10110300A08015ED42A080109000DEE07007EDF4A2
:0E111300FF52B08003ED42B0EE6002D2AF2278
:10112200E58290345593FFBFFF0475820022759AC1
:101132000974FC5580FE74035F4EF580D2842084CE
:10114200FD859F8222AF829000DD7401F08F82C004
:1011520007120FA6D0079000DFE0FDA3E0FE4D705E
:101162000A9000DEE4F08F820210AD8D038E0474CB
:10117200FF2C500B9000DE7401F08F820210ADEF55
:101182009033DD93FA24FB4054EA2A901191738044
:101192004C800680158024803353C6FB439D044354
:1011A2009D10E59D30E4FB8D9C2253C6F7439D08BC
:1011B200439D10E59D30E4FB8D9B2243C604439D75
:1011C20004439D10E59D30E4FB8D9C2243C60843F9
:1011D2009D08439D10E59D30E4FB8D9B22C3EB945B
:1011E20080EC9400500A9000DEE4F08F820210AD91
:0B11F2009000DE7401F08F820210AD4F
:1011FE0022AC82AD83AEF0FF9000EFECF0EDA3F0E9
:10120E00EEA3F0EFA3F0901F9A0213A5AC82AD836C
:10121E00AEF0FF9000E1E0FB900119ECF0EDA3F0D1
:10122E00EEA3F0EFA3F090011DEBF0901F9A0214C5
:10123E00F2AC82AD83AEF0FF9000EBECF0EDA3F0DC
:10124E00EEA3F0EFA3F0901F9A021378AC82AD8359
:10125E00AEF0FF9000E2E0FB900119ECF0EDA3F090
:10126E00EEA3F0EFA3F090011DEBF0901F9A021485
:10127E00F2AD82AE83AFF09000E8EDF0EEA3F0EFAA
:10128E00A3F0901F9A021316AD82AE83AFF09000BA
:10129E00E3E0FC9000E4EDF0EEA3F0EFA3F090009D
:0912AE00E7ECF0901F9A0212B85F
:1012B800AE82AF839000E4E0FBA3E0FCA3E0FD7AFC
:1012C800009000E7E0F9890019E8603F8B828C8381
:1012D8008DF0122F7DF8A3AB82AC83C007C006C087
:1012E80005C004C003C002C0011212F68007C00680
:1012F800C007888222A882D001D002D003D004D0AF
:1013080005D006D007E860030A80BB8A8222AE8235
:10131800AF839000E8E0FBA3E0FCA3E0FD9000E8C9
:10132800E0F5F0A3E045F07003F582227A008B82A5
:101338008C838DF0122F7DF9A3AB82AC83E9F86022
:101348002CC007C006C005C004C003C00212135A4F
:101358008007C006C007888222A982D002D003D0A5
:1013680004D005D006D007E960030A80C18A82222A
:10137800AE82AF839000EBE0FAA3E0FBA3E0FCA30E
:10138800E0FD9000F3EAF0EBA3F0ECA3F0EDA3F09E
:101398009000F7740AF08E828F83021409AE82AF30
:1013A800839000EFE0FAA3E0FBA3E0FCA3E0FD904C
:1013B8000119EAF0EBA3F0ECA3F0EDA3F090011D06
:1013C800740AF08E828F830214F2AE82AF83C00754
:1013D800C0061213DF8008C006C00775820D22AD53
:1013E80082D006D007C007C0051213F68008C006D1
:1013F800C00775820A22AE82D005D007EE2DF5828D
:1014080022858237858338900118E4F09000F7E050
:10141800FDBD020050069000F7740AF09000F7E056
:10142800F5397B187C019000F3E0F53AA3E0F53B31
:10143800A3E0F53CA3E0F53D85393E753F007540D6
:1014480000754100C004C003C03EC03FC040C04159
:10145800853A82853B83853CF0E53D122101A882CF
:10146800E58124FCF581C000C03EC03FC040C041BA
:10147800853A82853B83853CF0E53D1222F0AA82BD
:10148800AD83AEF0FFE58124FCF581D000D003D018
:10149800049000F3EAF0EDA3F0EEA3F0EFA3F01B45
:1014A800BBFF011C8B068C07B80A0050088805741E
:1014B800302DFD8004743728FD8E828F83EDF090E7
:1014C80000F3E0F5F0A3E042F0A3E042F0A3E0452A
:1014D800F0600302142E9000E8EBF0ECA3F0E4A314
:1014E800F0853782853883021316858242858343C7
:1014F80090011DE0FD701B900119E0F9A3E0FAA32B
:10150800E0FBA3E0FC1215128007C042C0438982A9
:101518002222BD0A0280030215BF900119E0F9A337
:10152800E0FAA3E0FBA3E0FC30E76FC004C003C00F
:1015380002C0011215408008C042C04375822D22A6
:10154800A882D001D002D003D0048844900119C3E6
:10155800E499F0E49AA3F0E49BA3F0E49CA3F09050
:101568000119E0F545A3E0F546A3E0F547A3E0F54A
:10157800489000F3E545F0E546A3F0E547A3F0E51C
:1015880048A3F09000F7740AF085428285438312DD
:101598001409AF82E5442FF582229000F3E9F0EABE
:1015A800A3F0EBA3F0ECA3F09000F7740AF08542E7
:1015B80082854383021409900119E0FBA3E0FCA390
:1015C800E0FEA3E0FF9000F3EBF0ECA3F0EEA3F055
:1015D800EFA3F09000F7EDF0854282854383021473
:0115E80009F9
:1015EA00C0D075D00808B8000D09B900090ABA00B8
:1015FA00050BBB00010CD0D032A2AFC2AFA808A91C
:10160A0009AA0AAB0BAC8A8588F092AF30F512743E
:10161A00012C600D08B8000909B900050ABA0001D1
:10162A000BC3EC9406FCECC313FC75F07DE8A4F83C
:10163A00ADF075F07DE9A42DF9E435F0FD75F07D86
:10164A00EAA42DFAE435F0FD75F07DEBA42DFB7DBF
:10165A0000EC28F582E93DF583EA3DF5F0EB3D2201
:10166A00A2AFC2AFA808A909AA0AAB0BAC0C92AFE9
:10167A0075F020E8A4A8F075F020E9A428F582A85E
:10168A00F075F020EAA428F583A8F075F020EBA401
:10169A0028F9A8F075F020ECA42889F02285821098
:1016AA0085831185F012F51312160385821485833A
:1016BA001585F016F517E510451145124513700109
:1016CA0022A810A911AA12AB138514188515198519
:1016DA00161A85171BE8494A4B60DBC003C002C0D3
:1016EA0001C000121603AC82AD83AEF0FFD000D069
:1016FA0001D002D003ECC39518FCED9519FDEE95C7
:10170A001AFEEF951BFFC3EC94E8ED9403EE9400E8
:10171A00EF940040A118B8FF0919B9FF051ABAFFDA
:10172A00011B881089118A128B1374E82518F51881
:10173A0074033519F519E4351AF51AE4351BF51B46
:10174A00851814851915851A16851B178087AE8288
:10175A00AF83C374019EE49F40022200C374029EB9
:10176A00FE74009FFF00BE0005BF000200220000B9
:10177A000000000000000000000000000000000E51
:10178A00BE00EB0FBF00ED002275A15575A1AA742A
:10179A00F855B94406F5B975A1009013881217587F
:1017AA00121D2B121D55121D4475DD0075D30075CF
:1017BA00D500759E5D759D0074F055894402F589C2
:0F17CA0053C9EF758C06C28DD2A9D28CD2AF2233
:1017DA00AFDBBF08028003021B9A900007E0FE7F7E
:1017EA0000900006E0FD7C004FF549EC4EF54A7F7B
:1017FA0000900001E0F54B900000E0FE5460605359
:10180A00900000E0FE5306607D00BE2005BD000288
:10181A00800BBE4039BD00367FFF021B9C7420B589
:10182A004B03021B9C7421B54B0280077422B54BF3
:10183A0018800C121EC6AD82AE838D07021B9CC097
:10184A0007121EF5D007021B9C7FFF021B9C7FFF1D
:10185A00021B9CE54B24F45003021B96E54B240B18
:10186A0083F582E54B241083F583E47378A69666A4
:10187A0096708E967D9A9C9C1B191B1A1B19181B15
:10188A0019191B1B900003E0FEBE0102800ABE026A
:10189A0002800FBE03608014754C7D754D347F1233
:1018AA008056754C8F754D347F46804C900002E00F
:1018BA00FE24FB4036EE2E9018C5738008800E80F9
:1018CA0014801A8020754CD5754D34801E754C11C4
:1018DA00754D358016754CE5754D34800E754CD9AD
:1018EA00754D348006754CFB754D34854C82854D9B
:1018FA0083E493FF80027FFFBFFF03021B9C8F05D7
:10190A007E00C3ED9549EE954A50048D498E4AAD45
:10191A0049AE4AC3ED9408EE9400920040067B0853
:10192A007C008004AB49AC4A8B077C00C3EC9F5017
:10193A00198C027B00EC254CF582E4354DF583E4E5
:10194A0093F98A828B83F00C80E28F037C00EDC3CB
:10195A009BFDEE9CFE8D498E4AEF254CF54CE435F5
:10196A004DF54D021B9C900002E0FE8E49754A001F
:10197A00021B9C90011EE0900000F0AD49AE4AC3E4
:10198A00ED9401EE94005003021B9C7F01021B9C04
:10199A00900002E0FE90011EF0021B9C900000E005
:1019AA00541F702F900003E0FD7E00900002E0FCBF
:1019BA007B004206EB4205BE0114BD00119034962D
:1019CA00E493FE30E503021B9C7FFF021B9C7FFF12
:1019DA00021B9C900000E0FE53061F7D00BE0277AA
:1019EA00BD0074900004E0FEBE0102805FBE0202E8
:1019FA008049BE03028033BE0402801DBE8102807C
:101A0A0040BE8202802ABE83028014BE844474BC13
:101A1A0055DE4402F5DE021B9C53DE73021B9C74E6
:101A2A00BC55D64402F5D6021B9C53D673021B9CA6
:101A3A0074BC55D44402F5D4021B9C53D473021BC4
:101A4A009C74BC55D24402F5D2021B9C53D2730239
:101A5A001B9C7FFF021B9C7FFF021B9C900000E0E7
:101A6A00541F702F900003E0FD7E00900002E0FCFE
:101A7A007B004206EB4205BE0114BD00119034966C
:101A8A00E493FE30E503021B9C7FFF021B9C7FFF51
:101A9A00021B9C900000E0FE53061F7D00BE02055B
:101AAA00BD00028003021B74900003E0FD7E0090DB
:101ABA000002E0FC7B004206EB4205EE4D600302A9
:101ACA001B70900005E0FD7E00900004E0FC7B00A6
:101ADA004206EB4205BE0106BD0003021B64BE02BC
:101AEA0005BD00028060BE0305BD00028044BE043D
:101AFA0005BD00028028BE8105BD00028052BE825B
:101B0A0005BD00028036BE8305BD0002801ABE8470
:101B1A0051BD004E74BF55DE4403F5DE8074747FF8
:101B2A0055DE440CF5DE806A74BF55D64403F5D6FB
:101B3A008060747F55D6440CF5D6805674BF55D450
:101B4A004403F5D4804C747F55D4440CF5D48042B8
:101B5A0074BF55D24403F5D28038747F55D2440CF1
:101B6A00F5D27FFF802C7FFF80287FFF80249000A2
:101B7A0000E4F0900001F0AD49AE4AC3ED9402EEE4
:101B8A00940040047F02800AAF4980067FFF8002EA
:101B9A007FFFBFFF07754BFF75DCCF22EF24F740AD
:101BAA00068FDD75DCC02275DD0075DCC022740588
:101BBA00B54B02805D7406B54B66AE49AF4AC3EEBB
:101BCA009408EF9400920140067C087D008004ACE2
:101BDA0049AD4A7D00C3ED9C50198D027B00ED256D
:101BEA004CF582E4354DF583E493F98A828B83F0D0
:101BFA000D80E28C037D00EEC39BFEEF9DFF8E49B4
:101C0A008F4AEC254CF54CE4354DF54D8CDD63DC03
:101C1A004022E5E35480FFE5494FF5E375DC0222F3
:101C2A0075DD0075DC02227420B54B0D30DE101212
:101C3A001E8175DD0085DCDC2275DD0043DC0222B5
:101C4A0075D30074FC55D24402F5D22220D903027E
:101C5A001D01E5D9540FFFADD95305307E00BD00F3
:101C6A0005BE0002801CBD1005BE00028036BD20E4
:101C7A0005BE00028043BD3006BE0003021CE70217
:101C8A001CFFEF24FB5003021CFFEF2F901C9A73DA
:101C9A00800880618009805D805B121C3180561249
:101CAA0020E38051EF24FB404CEF2F901CB9738046
:101CBA004480428040803E803CEF24FB4037EF2F37
:101CCA00901CCE738008800B800E80298027121BFF
:101CDA00B88022121C4A801D1220D58018EF24FBDE
:101CEA004013EF2F901CF27380088009800780054B
:101CFA0080031217DAC2D930D81A75DC0275D212EB
:101D0A0075D41275E300C2DAC2D9C2D890011EE4B2
:101D1A00F0121E7910DA0122E5DA20E20375D8FF03
:101D2A002275E20053E27F43E22975E30053E2BFE2
:101D3A0053D1FB75D18043D1012243E10443E1022F
:101D4A0043E10143D81FD2EAD2AF227E007F008E40
:101D5A00EC8FED7E0A7F008EEE8FEF7E147F008E71
:101D6A00E48FE575EB0C75D21275D41275EA4075DD
:031D7A00DC022266
:101D7E00C01C85811CC082C083E5812405F581AF1E
:101D8E001C0FE51C2403F8A607087600087640E52C
:101D9E001C24FCFD7E007F40E51C2406F9A81C08CF
:101DAE008604E51C24FCF886038CF0EBA4F709A747
:101DBE00F0E51C240604F98704A81C0886037401A8
:101DCE002DFAE43EFE8A828E838FF0122F7D8BF0E9
:101DDE00A4FBE51C2403F8740126FDE40836FE0876
:101DEE0086078D828E838FF0122F7DFDE51C24FCDD
:101DFE00F886078DF0EFA42B2CF7E51C2406F98747
:0F1E0E00060987078E828F83851C81D01C2232A4
:011E1E003291
:101E2000120F457900E583B58202800D5003122E12
:101E300010E583C39582123299E5D0C465D020E1C4
:101E400017EA2DFAEB3EFBEC3FFC5009740112320D
:101E500099EC4480FC0223DFC3EA9DFAEB9EFBEC85
:101E60009FFC500FC3E499F9E49AFAE49BFBE49CCD
:091E7000FCB2D1120F730223DF52
:101E79009001D3E4F0C202227F00C3E5DB9407920C
:101E89000340067D077E008004ADDB7E008F037C66
:101E990000C3EB9DEC64808EF063F08095F0501CDC
:101EA900EF24CCFDE43401FEEF2400F582E4340094
:101EB900F583E0FC8D828E83F00F80BE227F008F38
:101EC900057E00C3ED9407EE9400501CEF2400FD3D
:101ED900E43400FEEF24CCF582E43401F583E0FC20
:101EE9008D828E83F00F80D790000722900002E048
:101EF900FF9001D5F0E020E0339001CCE0FCA3E0B5
:101F0900FDA3E0FEA3E0FFBCB022BD041FBE001C80
:101F1900BF001975E200C2AF75890090C35012174E
:101F29005890C35012175812380080FE227E007F45
:101F3900003002200EBE00010F900005C007C00648
:101F4900121758D006D007C3EE9450EF94C340E15E
:101F59007582002275820122751D009001D5E0600D
:101F690003751D01851D82222002259001D6E0FFFF
:101F7900601E8FD553D4FCD202BF400F121F36E525
:101F890082600875D50053D4FCD2029001D6E4F0E2
:101F990022AF829001D5E06041C007121F36E58269
:101FA900D0077003F582229001D6E0FEBE400050B2
:101FB900207D0074402EFEE43DFDEE2414F582EDF3
:101FC9003400F583EFF09001D6E02401F075820129
:101FD90022C007121F71D00780BF75820022AFF09F
:101FE900AE83E582900121F0EEA3F0EFA3F090011A
:101FF900D5E0700302209D90011FE0FEA3E0FFC31E
:10200900E49E74808FF063F08095F0400302209D78
:10201900C007C006121F36E582D006D0077003F547
:102029008222900121E0FBA3E0FCA3E0FDC3E49E32
:1020390074808FF063F08095F050BC9001D6E0FA7F
:10204900BA400050498A017A00744029F9E43AFA01
:10205900E92414F9EA3400FA8B828C838DF0122F6B
:102069007DF8A3AB82AC83900121EBF0ECA3F0EDFA
:10207900A3F089828A83E8F09001D6E02401F01E5A
:10208900BEFF011F90011FEEF0EFA3F0809F121F0A
:1020990071022000758200229001D3E0F58222901E
:1020A90001D3E07003F582229001D4E02414F58273
:1020B900E43400F583E0FF9001D4E004F09001D30B
:1020C900E014F0E0700353D4F38F822275D50074C5
:1020D900FC55D44402F5D4C2022230DE199001D352
:1020E900E5DBF09001D4E4F09001D3E0600874F3EB
:0720F90055D44408F5D42280
:10210100C01C85811CAC82AD83AEF0FF05817B00D4
:10211100A81C087600E51C24FAF8080808E62354F0
:1021210001FA704CE51C24FAF8E626F608E633F6C7
:1021310008E633F608E633F6E51C24FAF8C3EC9614
:10214100ED0896EE0896EF0896501AE51C24FAF869
:10215100080808E6C313F618E613F618E613F6188E
:10216100E613F6800BA81C0806A81C08860380A5A8
:10217100E51C24FAF8C3EC96ED0896EE0896EF08F4
:10218100964015E51C24FAF8ECC396FCED0896FD83
:10219100EE0896FEEF0896FFE51C24FAF8080808F9
:1021A100E6C313F618E613F618E613F618E613F667
:1021B1008B021BEA70BA8C828D838EF0EF1581D071
:1021C1001C22C01C85811CC082058105810581E519
:1021D1001C24FBF8A91C0909E6F708E609F708E63B
:1021E10009F7A81C080886820886830886F0122F42
:1021F1007DFAA3122F7DFBA3122F7DFF74012AFC10
:10220100E43BFD8F06A81C080886820886830886A1
:10221100F0EC123374A3ED123374A3EE1233748A0B
:10222100828B838FF0A81C08E6123374851C81D041
:102231001C22AFF0AE83E582900128F0EEA3F0EF0F
:10224100A3F0900124E0FDA3E0FEA3E0FF900127AD
:10225100E0FC90013C7428F07401A3F0E4A3F09039
:10226100013FEDF0EEA3F0EFA3F0900142ECF0900E
:1022710021C3122502AE82AF83900128E0FBA3E0C7
:10228100FCA3E0FD8B828C838DF0E41233748E828B
:102291008F8322C01CE581F51C24F8FFE51C24FB7B
:1022A100FE7D007C4090013CEEF0EDA3F0ECA3F04C
:1022B100E51C24F8F890013FE6F008E6A3F008E6F3
:1022C100A3F0900142EFF09021C3122502AE82AF3C
:1022D10083E51C24FBF886030886040886058B82A7
:1022E1008C838DF0E41233748E828F83D01C22C0D4
:1022F1001C85811CC082C083C0F0C0E07A007B00D5
:102301007E007F007D20A81C08080808E6235401F0
:10231100FCA81C08E626F608E633F608E633F608BC
:10232100E633F6EA2AFAEB33FBEE33FEEF33FFEC4A
:102331006003430201E51C24FAF8C3EA96EB089610
:10234100EE0896EF0896401CE51C24FAF8EAC396BD
:10235100FAEB0896FBEE0896FEEF0896FFA81C081C
:10236100E64401F6DDA0A81C08868208868308865B
:10237100F008E6851C81D01C22AC83AB827A0079FF
:1023810000748E0230181232DC700AE582458345F2
:10239100F0700122E430D112F4700BE5F0F4700614
:1023A100E58330E7012290800022700AE5F0700693
:1023B100E58320E70122907FFF22ABF0A2AFE43357
:1023C100FEC2AFE0A37A0833D2974002C2977905E3
:0E23D100D9FEC297DAF1DBEBEE6002D2AF224A
:1023DF00B98003EA13B34010EA2401FAE43BFBE4AB
:1023EF003CFC50047C800582BC000EBB000BBA0085
:1023FF0008E4F5F0F583F58222A2D1E582138CF083
:10240F0092F78B838A8222E4F583F58275F080F44C
:10241F00A2D11322E4F583F58275F0C0747F22E513
:10242F0082900138F0E0FF90012EE0C0E0A3E0C001
:10243F00E0A3E0C0E0122449800D90012CE0C0E041
:10244F00A3E0C0E08F82221581158115819001369E
:10245F00E02401F0A3E03400F022E582900139F08E
:10246F00E02430FF24C6500D74072FFF90012BE09E
:10247F0060034307208F8202242EE58290013AF0F9
:10248F00E0FFC4540FF582C007122469D007530729
:10249F000F8F82022469E58290013BF0900131E0B9
:1024AF00FCA3E0FDA3E0FEA3E0FF900135E0FB906D
:1024BF00013BE0FA79208B00E828F51DEF2354014A
:1024CF00451DFBEC2CFCED33FDEE33FEEF33FFC36C
:1024DF00EB9A4007EBC39AFB43040119E970D790BD
:1024EF000131ECF0EDA3F0EEA3F0EFA3F090013586
:1024FF00EBF022AF83E582900143F0EFA3F0900160
:10250F0043E0FEA3E0FF90012CEEF0EFA3F090016B
:10251F003CE0FDA3E0FEA3E0FF90012EEDF0EEA363
:10252F00F0EFA3F0900136E4F0A3F090013FE0FD4F
:10253F00A3E0FEA3E0FF8D828E838FF0122F7DFC30
:10254F0090013F74012DF0E43EA3F0EFA3F0EC7087
:10255F0003022E04BC25028003022DFC900145E4EA
:10256F00F0900146F0900147F0900148F09001493A
:10257F00F090014AF090014BF090014CF090014E19
:10258F00F090014FF0A3F090015114F0A3F09001DF
:10259F003FE0FDA3E0FEA3E0FF8D828E838FF0125C
:1025AF002F7DFBA3AD82AE8390013FEDF0EEA3F044
:1025BF00EFA3F0900155EBF0BB25088B8212242E70
:1025CF0002253ABB3000500302269BEB24C6500372
:1025DF0002269B900151E0F54EA3E0F54F74FFB535
:1025EF004E63B54F60C005C006C00790014FE0FABB
:1025FF00A3E0FF900000EAF0EFA3F090000AC005FF
:10260F00C003121D7EAE82AF83D003D0058B027D37
:10261F0000EA2EFEED3FFFEE24D0FEEF34FFFF90D9
:10262F00014FEEF0EFA3F0D007D006D00590014F89
:10263F00E0F5F0A3E045F060030225A89001467491
:10264F0001F00225A8C005C006C007900000E54EA6
:10265F00F0E54FA3F090000AC006C005C003121D9D
:10266F007EAA82AF83D003D005D0067E00EB2AFA74
:10267F00EE3FFFEA24D0FAEF34FFFF900151EAF06A
:10268F00EFA3F0D007D006D0050225A8900155E0A2
:10269F00FBBB2E2FC005C006C007900151E0FAA367
:1026AF00E0FFBAFF05BFFF028009D007D006D005B3
:1026BF000225A8D007D006D005900151E4F0A3F071
:1026CF000225A8BB61004014EB2485400F900155F3
:1026DF0074DF5BF090012B7401F0800590012BE407
:1026EF00F0900155E0FBBB20028075BB2B02806789
:1026FF00BB2D028059BB4202806FBB4302807CBB63
:10270F004403022992BB46030229B8BB48030225A2
:10271F00A8BB4903022992BB4A030225A8BB4C025E
:10272F008050BB4F030229A0BB5003022900BB53AB
:10273F00028077BB54030225A8BB55030229A8BB0F
:10274F0058030229B0BB5A030225A80229C09001E1
:10275F00457401F00225A89001477401F00225A8E5
:10276F009001487401F00225A890014A7401F0020B
:10277F0025A890014B7401F00225A890014AE06052
:10278F000E900142E014F9F0900155E7F0800F90A0
:10279F000142E024FEFFF08F01900155E7F0900118
:1027AF0055E0F58212242E0229CF900142E024FD3C
:1027BF00FFF08F018705098706098707191990010F
:1027CF0031EDF0EEA3F0EFA3F08D828E838FF01238
:1027DF002EA285824E85834F900151E0FAA3E0FD32
:1027EF00BAFF0DBDFF0A900151E54EF0E54FA3F082
:1027FF00900145E0704B90014FE0FAA3E0FDC3E577
:10280F004E9AE54F9D503A90014FEAC3954EF0ED29
:10281F00954FA3F090014FE0FAA3E0FD8A068D07D4
:10282F001ABAFF011DEE4F6010758220C005C0025D
:10283F0012242ED002D00580E390014FEAF0EDA3D1
:10284F00F0900151E0F551A3E0F552900131E0FA1B
:10285F00A3E0FDA3E0FF8A828D838FF0122F7DF519
:10286F0050603CC3E4955174808552F063F08095BD
:10287F00F0502C155174FFB551021552855082122C
:10288F00242E900131E0FAA3E0FDA3E0FF0ABA0085
:10289F00010D900131EAF0EDA3F0EFA3F080AC90C1
:1028AF000145E070030229CF90014FE0FEA3E0FF46
:1028BF00C3E54E9EE54F9F40030229CF90014FEE97
:1028CF00C3954EF0EF954FA3F090014FE0FEA3E0BC
:1028DF00FF8E028F051EBEFF011FEA4D70030229F6
:1028EF00C7758220C007C00612242ED006D00780DD
:1028FF00E0900142E024FDFDF08D018753098754DC
:10290F000987551919900131E553F0E554A3F0E506
:10291F0055A3F0900133E0FDBD80004008900155B4
:10292F007443F08020BD600040089001557450F052
:10293F008013BD400040089001557449F080069007
:10294F0001557458F0900155E0FDF582C005122431
:10295F002E75823A12242E75823012242E758278AB
:10296F0012242ED005BD4902800EBD500280099061
:10297F000132E0F582122489900131E0F5821224B0
:10298F0089803D9001497401F090014E740AF080E6
:10299F002F90014E7408F0802790014E740AF0803A
:1029AF001F90014E7410F0801790014C7401F0804D
:1029BF000F8B8212242E800890014FEEF0EFA3F0C0
:1029CF0090014CE06071900142E024FCFFF08F0118
:1029DF0087030987050987060987071919199001C0
:1029EF0031EBF0EDA3F0EEA3F0EFA3F09001317413
:1029FF001FF07435A3F07480A3F0900131E0F5530C
:102A0F00A3E0F554A3E0F55574012553FAE43554CA
:102A1F00FBAF55900131EAF0EBA3F0EFA3F0855334
:102A2F00828554838555F0122F7DFF700302253A5E
:102A3F008F8212242E80C390014EE0700302253A3C
:102A4F0090014AE06047900142E014F9F087077E59
:102A5F00007D007B00900131EFF0EEA3F0EDA3F0CD
:102A6F00EBA3F0900149E06003022B12900131E0DB
:102A7F00FBA3E0A3E0A3E07D007E007F0090013187
:102A8F00EBF0EDA3F0EEA3F0EFA3F0807690014B07
:102A9F00E06028900142E024FCFFF08F01870309DA
:102AAF008705098706098707191919900131EBF076
:102ABF00EDA3F0EEA3F0EFA3F08048900142E024E5
:102ACF00FEFFF08F01870609870719EF3395E0FDA9
:102ADF00FB900131EEF0EFA3F0EDA3F0EBA3F0903C
:102AEF000149E0701E900131E0FBA3E0FDA3E0A3DC
:102AFF00E07E007F00900131EBF0EDA3F0EEA3F04C
:102B0F00EFA3F0900149E06041900131E0FBA3E0B9
:102B1F00FDA3E0FEA3E0FF30E72B900131E0FBA324
:102B2F00E0FDA3E0FEA3E0FFC3E49BFBE49DFDE417
:102B3F009EFEE49FFF900131EBF0EDA3F0EEA3F0CA
:102B4F00EFA3F08005900149E4F090014D7401F07E
:102B5F0090014EE0F55175565B755701E4F54EF552
:102B6F004F900135E4F08551821224A590014DE07C
:102B7F007033900135E0C454F0F553900135E0C443
:102B8F00540F4553F553855682855783E0FFE55320
:102B9F004207855682855783EFF0155674FFB55659
:102BAF00021557800C900135E0FF855682855783BB
:102BBF00F0054EE4B54E02054F90014DE0B4010013
:102BCF00E433F0900131E0FAA3E0FBA3E0FEA3E0D1
:102BDF00FFEA4B4E4F708A90015CE556F0E557A324
:102BEF00F0900153E54EF0E54FA3F090014FE0F563
:102BFF00F0A3E045F0700990014F7401F0E4A3F0E9
:102C0F00900146E0FFE07047900145E07041854E2E
:102C1F0056854F5790014FE0FAA3E0FBC007AF5620
:102C2F000F8F067F00C3EE9AEF9BD0075019758266
:102C3F0020C007C003C00212242ED002D003D00739
:102C4F001ABAFF011B80D590014FEAF0EBA3F09069
:102C5F000149E0602075822DC00712242ED0079005
:102C6F00014FE024FFFDA3E034FFFE90014FEDF094
:102C7F00EEA3F08056900153E0F5F0A3E045F0602D
:102C8F004A900147E0602075822BC00712242ED096
:102C9F000790014FE024FFFDA3E034FFFE90014FAA
:102CAF00EDF0EEA3F08024900148E0601E758220C5
:102CBF00C00712242ED00790014FE024FFFDA3E0A0
:102CCF0034FFFE90014FEDF0EEA3F0900145E07060
:102CDF0048900153E0F556A3E0F55790014FE0FA05
:102CEF00A3E0FBC0078A068B071ABAFF011BC3E5D7
:102CFF00569EE5579FD0075053EF60067D307E00FC
:102D0F0080047D207E008D82C007C003C002122484
:102D1F002ED002D003D00780CA90014FE0FEA3E06F
:102D2F00FF900153E0F556A3E0F557C3E5569EE536
:102D3F00579F500F90014FEEC39556F0EF9557A345
:102D4F00F0801190014FE4F0A3F0800890014FEA5A
:102D5F00F0EBA3F090015CE0FEA3E0FF900153E0E5
:102D6F00F556A3E0F557AA56AD57155674FFB5564D
:102D7F00021557EA4D604590014DE0B40100E43370
:102D8F00F090014DE070140EBE00010F8E828F8304
:102D9F00E0C4540FFD900135F0800E8E828F83E0DA
:102DAF00FD53050F900135EDF0900135E0F582C030
:102DBF0007C006122469D006D00780AA900145E00B
:102DCF00700302253A90014FE0FEA3E0FF8E038FC0
:102DDF00051EBEFF011FEB4D700302253A758220C1
:102DEF00C007C00612242ED006D00780E08C8212B6
:102DFF00242E02253A900136E0FEA3E08E82F58361
:012E0F0022A0
:102E1000E582C583F582A2D133A2D592D11392D592
:102E2000ECCFFCEBCEFBEACDFA2222AF82BF020050
:102E3000503EEF75F002A424D7FD740135F0FE90EA
:102E4000015EE0FBA3E0FC8D828E83EBF0ECA3F04F
:102E5000BF00028005BF0118800B900160E024FFD5
:102E60009288D2A822900160E0FF24FF928AD2AA21
:102E700022AF82BF02005028BF00028005BF0108B8
:102E80008004C2A88002C2AAEF75F002A424D7FE73
:102E9000740135F0FF8E828F83742AF0742EA3F0B4
:012EA000220F
:102EA200AA82AB83122F7D6003A380F8C3E5829AC6
:102EB200F582E5839BF58322120F4530D502B2D10C
:102EC200BF0009BC0003022423022416BC00030233
:102ED2002400E583B4FF0BE582B4FF03022423023E
:102EE2002400E582B4FF03022416C395835007240D
:102EF2007F400B0224002480145003022416F58222
:102F0200C3ED9AEE9BEF9C40111582C3EA33F9EBB5
:102F120033FAEC33FBE433FC8005E4CCCBCAF9C0D2
:102F22008275F019C3E99DEA9EEB9FEC9400D5F0FF
:102F320002802D400EE99DF9EA9EFAEB9FFBEC948C
:102F420000FCC3B3E833F8E58233F582E58333F559
:102F520083C3E933F9EA33FAEB33FBEC33FC80C485
:102F6200B3E4F938FAE43582FBE43583FCD08250CD
:0B2F72000405827C80120F730223F71D
:102F7D0020F71430F6148883A88220F507E6A8837D
:102F8D0075830022E280F7E49322E0227F861233DC
:102F9D004FF58222C01C85811CAE82E583FF33E490
:102FAD0033FD6009C3E49EFBE49FFC80048E038F18
:102FBD0004E51C24FCF808E630E70FE51C24FCF8BA
:102FCD00C3E496FE08E496FF800AE51C24FCF8860F
:102FDD0006088607C005C006C0078B828C83123099
:102FED003CAE82AF8315811581D005ED600DC3E434
:102FFD009EFCE49FFD8C828D8380048E828F83D016
:10300D001C22FCABF0AA83A982749EF582C2D1EC7E
:10301D0030E716D2D1E9F42401F9EAF43400FAEBE1
:10302D00F43400FBECF43400FC120F730223DFC008
:10303D001C85811CAE82AF837D007C00E51C24FCC9
:10304D00F808E6235401FB702FE51C24FCF8E62656
:10305D00F608E633F6E51C24FCF8C3EE96EF089669
:10306D005011E51C24FCF808E618C313C613C60856
:10307D00F680050C8C0580C4E51C24FCF8C3EE9687
:10308D00EF0896400DE51C24FCF8EEC396FEEF0804
:10309D0096FFE51C24FCF808E618C313C613C608F2
:0E30AD00F68D041DEC70D18E828F83D01C2214
:1030BB009001DBE0FF7E000FBF00010E7410C0E03B
:1030CB00E4C0E08F828E83122FA1AE821581158111
:1030DB009001DCE0FFEEB50701229001DBE02461FB
:1030EB00F582E43401F583E599F09001DBEEF022F3
:1030FB0030044A9001DDE0FF9001DEE0FEEFB50603
:10310B0005A204C204229001DEE02471F582E434AE
:10311B0001F583E0F5999001DEE0FF7E000FBF0023
:10312B00010E7410C0E0E4C0E08F828E83122FA1D9
:0E313B00AE82AF83158115819001DEEEF02289
:103149009001DFE0FF7E000FBF00010E7410C0E0A8
:10315900E4C0E08F828E83122FA1AE821581158182
:103169009001E0E0FFEEB50701229001DFE0248144
:10317900F582E43401F583E5C1F09001DFEEF02238
:1031890030054A9001E1E0FF9001E2E0FEEFB5066B
:1031990005A205C205229001E2E02491F582E434FA
:1031A90001F583E0F5C19001E2E0FF7E000FBF0069
:1031B900010E7410C0E0E4C0E08F828E83122FA14B
:0E31C900AE82AF83158115819001E2EEF022F7
:1031D700C01C85811CAE82E583FF33E433FD6009A3
:1031E700C3E49EFBE49FFC80048E038F04E51C244C
:1031F700FCF808E633E433FF600FE51C24FCF8C352
:10320700E496FA08E496FE800AE51C24FCF8860298
:10321700088606C007C005C002C0068B828C8312D1
:10322700324DAC82AE8315811581D005D007EF6D85
:10323700600DC3E49CFDE49EFF8D828F8380048C28
:10324700828E83D01C22C01C85811CAE82AF837CFA
:10325700007D007B10EF235401FAEE2EFEEF33FFC3
:10326700EC2CFCED33FDEA6003430401E51C24FC70
:10327700F8C3EC96ED08964010E51C24FCF8ECC367
:1032870096FCED0896FD430601DBCA8E828F83D03C
:103297001C226040F82582500274FFF582E824F86A
:1032A700501ECCCBCAF9E4CC24F85014CBCAF9E4AD
:1032B700CB24F8500BCAF9E4CA24F850037900224A
:1032C70024086010F8C3EC13FCEB13FBEA13FAE9CC
:1032D70013F9D8F12212333BC3749E958240397992
:1032E7000012329930D126E9F42401F582EAF43448
:1032F70000F583EBF43400F5F0ECF43400700AE5E4
:1033070082458345F0700122E430E70F22EC20E785
:103317001489828A838BF02230D10AE4F582F583FF
:10332700F5F074802274FFF582F583F5F0747F223F
:1033370075820022AA82AB83A2F73392D1F582600D
:1033470002D2F7ACF0227F9E12333B30D103022426
:1033570000C3EF9582500974FFF5F0F583F58222DB
:10336700790012329989828A838BF0EC2220F71137
:1033770030F6138883A88220F509F6A883758300A1
:083387002280FEF280F5F02225
:10338F0010000B000F000E002000010000003200A3
:10339F0000000A0000000A0000000100000000FF0A
:1033AF00000000FFFF0000FFFF0025640046587C6F
:1033BF0043484153450046587C5241494E424F576E
:0E33CF000046587C425245415448494E470042
:1033DD0000000000000000000000000000000001DF
:1033ED0000000000000000000000000000000304C9
:1033FD0000000200000000000101010101010101B6
:10340D000000020202020202020200000303030393
:10341D000303030300000404040404040404000073
:10342D000102040810204080000001020408102051
:10343D0040800000010204081020408000000102BD
:10344D000408102040800000FFFFFFFFFFFFFFFF7B
:10345D00FFFFFF00FFFF0102FFFFFFFFFFFFFFFF69
:10346D00FFFFFFFFFFFFFFFF03FFFFFFFFFFFFFF5B
:10347D0012011001EF020108091250C501010102EC
:10348D000301090246000201008064080B000202DC
:10349D0002010409040000010202010405240010C8
:1034AD00010424020205240600010705810308001A
:1034BD004009040100020A00000407050202400051
:1034CD000007058202400000040309040C034300B9
:1034DD0048003500350078001603430048003500DC
:1034ED00350078006400750069006E006F001603EA
:1034FD004300440043002000530065007200690042
:10350D0061006C000E0344006500710069006E00DF
:02351D00670045
:0B351F003C4E4F20464C4F41543E00F4
:10352A00320F000000000000000000000000000050
:10353A0000000100010000000000FFFF0000000081
:08354A00000000000000000079
:02355200000077
:0B35540000E100000000080000000083
:04355F002A2E2A2EB8
:043563000000000064
:043567000000000060
:00000001FF
