:0600000002006B020D6F0F
:03000B000214C01C
:03001300020DC219
:01001B0032B2
:03002300020CD7F5
:03002B00021CF4C0
:01003300329A
:03003B00020E159D
:03004300020C9814
:01004B003282
:03005300020D2378
:01005B003272
:03006300021CF28A
:03006600020E691E
:02006900E4733E
:0D006B00758153122F28E5826003020066A4
:100078007946E94400601B7A019030E178A475A0C4
:1000880001E493F2A308B8000205A0D9F4DAF275E6
:02009800A0FFC7
:06009A00E478FFF6D8FD3A
:1000A0007800E84400600A799475A000E4F309D868
:1000B000FC7810E84401600C7902900094E4F0A30D
:0400C000D8FCD9FA95
:1000C4009000CDE4F09000D1E4F09000D204F090E0
:1000D40000D3E4F09000D7E4F0A3F0A3F0A3F090F1
:0F00E40000DB04F0E4A3F09000DD04F0E4A3F0EF
:0E00F4007808E4F608F608F608F6780C7600B0
:02010200C20237
:02010400C20433
:02010600C20530
:030108000200668C
:10010C009000DF7401F0758211120E7C902F47E481
:10011C0093FE7401939000DF7402F08E82120E7CB9
:10012C007E007F00C3EE9404EF64809480502CEE2C
:10013C002EFCEF33FDEC2449F582ED342FF583E4EE
:10014C0093FD9000DFE4F08D82C007C006120E7C98
:10015C00D006D0070EBE00CC0F80C922121540ACC1
:10016C0082AD83AEF0FF9001A6E0F8A3E0F9A3E026
:10017C00FAA3E0FBECC398F522ED99F523EE9AF582
:10018C0024EF9BF525902F51E493F8740193F974A7
:10019C000293FA740393FBC3E52298E52399E524B3
:1001AC009AE5259B40119001A6ECF0EDA3F0EEA38F
:1001BC00F0EFA3F0020B3522120237121540AC827D
:1001CC00AD83AEF0FF9001CCE0F8A3E0F9A3E0FA28
:1001DC00A3E0FBECC398F8ED99F9EE9AFAEF9BFBD0
:1001EC009001D0E0600FC3E89405E99400EA940014
:1001FC00EB9400500FC3E89464E99400EA9400EB8C
:10020C0094004026C007C006C005C0041203A8D045
:10021C0004D005D006D0079001D0E4F09001CCECCE
:10022C00F0EDA3F0EEA3F0EFA3F0227E007F00C36D
:10023C00EE9404EF64809480400122EE2EFCEF33A8
:10024C00FDEC2449F582ED342FF583E493F582C05F
:10025C0007C006120FF8AD82D006D0078D047D00C2
:10026C009000AEECF0EDA3F0C3EC9405ED6480943B
:10027C008050099000AEE4F0A3F08018C374FA9C8F
:10028C0074808DF063F08095F050099000AE74FF8F
:10029C00F0E4A3F0EE2EFCEF33FDEC24AAFCED34DD
:1002AC0001FD8C828D83E0FAA3E0FB9000AEE0F8B8
:1002BC00A3E0F9E8B50206E9B503028045EE24B2E5
:1002CC00F582EF3401F5837401F08C828D83E8F0B4
:1002DC00E9A3F09001B6E4F0A3F0C007C006121534
:1002EC0040AA82AB83ACF0FDD006D0079001BAEAED
:1002FC00F0EBA3F0ECA3F0EDA3F09001BEEEF0EF69
:10030C00A3F09000AEE0FCA3E0FD8C828D83C007CF
:10031C00C006120361AC82AD83D006D007EE2EFA74
:10032C00EF33FBEA24A6FAEB3400FB8A828B83E0E2
:10033C00F8A3E0F9ECB50006EDB50102800F8A8256
:10034C008B83ECF0EDA3F09001D07401F00EBE00A5
:10035C00010F02023BAF83E5829000B0F0EFA3F0F7
:10036C009000B0E0FEA3E0FFEE2EFCEF33FDEC2C92
:10037C00FCED33FDC005C0047455C0E0E4C0E08E54
:10038C00828F83122EB2AE82AF8315811581D00479
:10039C00D005EE2CFCEF3D8C82F583229000C6E458
:1003AC00F0A3F07E007F00C3EE9404EF6480948091
:1003BC004003020453EE4F60209000C6E0FCA3E023
:1003CC00FD9000C674012CF0E43DA3F0EC24B2F5D2
:1003DC0082ED3400F583747CF0EE2EFCEF33FDECF3
:1003EC0024A6F582ED3400F583E0F526A3E0F5278D
:1003FC009000C6E0FAA3E0FBEA24B2F8EB3400F973
:10040C007D00C007C006C003C002C026C02774719F
:10041C00C0E0742FC0E07480C0E0C000C001C00513
:10042C00122111AC82AD83E58124F8F581D002D084
:10043C0003D006D0079000C6EC2AF0ED3BA3F00EDB
:10044C00BE00010F0203B39000C6E0FEA3E0FFEE76
:10045C0024B2F582EF3400F583E4F09000B275F02D
:10046C0000121155901E170212A8121540AC82AD45
:10047C0083AEF0FF9001B6E0F5F0A3E045F07042DA
:10048C009001BAE0F8A3E0F9A3E0FAA3E0FBECC317
:10049C0098FCED99FDEE9AFEEF9BFFC3EC94D0ED2A
:1004AC009407EE9400EF940040189001B8E0FEA37E
:1004BC00E0FF9001B6EEF0EFA3F09001BE74FFF0F8
:1004CC00A3F09001B6E0FEA3E0FFBE0005BF000262
:1004DC008018BE0105BF00028013BE0205BF0002DA
:1004EC00800EBE0311BF000E800902057502088F35
:1004FC0002092302075622E5829000CCF09000CB33
:10050C00E0FF9000C8E0F5F0EFA4AEF08E0590008F
:10051C00C9E0F5F0EFA4AEF08E049000CAE0F5F05F
:10052C00EFA4AEF08E079000CCE0FE7B00C007C0BD
:10053C0005C004C006C003900003121C54AB82AE6D
:10054C008315811581D004D005D007EB2494FBEEE4
:10055C003400FE8B828E83ECF08B828E83A3EDF0C5
:10056C008B828E83A3A3EFF0229001BEE0FEA3E06A
:10057C00FFC007C006C006C007900003121C54AC95
:10058C0082AD8315811581D006D007EC2465FCED76
:10059C00342FFD8C828D83E493FB8C828D83A3E4BA
:1005AC0093FA8C828D83A3A3E493FDEE2EFEEF339E
:1005BC00FFEE24A6F582EF3400F583E0FEA3E0FF06
:1005CC00C007C006C005C003C00274AAC0E0E4C0E6
:1005DC00E08E828F83122EB2A982AC831581158195
:1005EC00D002D003D005D006D007C005C004C0038C
:1005FC00C002C00174AAC0E0E4C0E08E828F8312F6
:10060C002CA9AE82AF8315811581EF5401A2E0CEE7
:10061C0013CE13CEFF74AAC0E0E4C0E08E828F83A9
:10062C00120C4CAE8215811581D001D002D003D0B2
:10063C0004D00589078B018A008D28E4F529F52A59
:10064C00C3E5299406E52A6480948040030207419F
:10065C00C3E5299FE52A64808CF063F08095F05007
:10066C0043C006AE299000C8EBF09000C9EAF090A8
:10067C0000CAEDF09000CB7480F08E82C007C006EB
:10068C00C005C004C003C002C001C000120503D0E5
:10069C0000D001D002D003D004D005D006D007D0B2
:1006AC0006020736EFB52946ECB52A42C005AD293E
:1006BC009000C8E9F09000C9E8F09000CAE528F075
:1006CC009000CBEEF08D82C007C006C005C004C000
:1006DC0003C002C001C000120503D000D001D0023B
:1006EC00D003D004D005D006D007D005803CC0067E
:1006FC00AE299000C8E4F09000C9F09000CAF090C8
:10070C0000CBF08E82C007C006C005C004C003C079
:10071C0002C001C000120503D000D001D002D003EA
:10072C00D004D005D006D007D0060529E4B529029F
:10073C00052A02064C7E947F007D007C0043051246
:10074C008E828F838DF0EC0221F77E007F00C3EE4A
:10075C009406EF6480948040030208549000CDE02E
:10076C00FD7C00C007C006C005C004C006C00790D1
:10077C00002A121C54AA82AB8315811581D004D097
:10078C0005EA2DFDEB3CFC74FFC0E0E4C0E08D827B
:10079C008C83122CA9AC82AD8315811581D006D027
:1007AC0007BC5500501F8C05ED75F003A49000CECE
:1007BC00D394FFF4F09000CFEC75F003A4F090000C
:1007CC00D0E4F08048BCAA0050258C05ED24ABFD8C
:1007DC009000CEE4F08D03EB75F003A49000CFD322
:1007EC0094FFF4F09000D0ED75F003A4F0801EECB3
:1007FC002456FC9000CE75F003A4F09000CFE4F0EA
:10080C00EC75F003A49000D0D394FFF4F08E059017
:10081C0000CEE0FC9000CFE0FB9000D0E0FA90001E
:10082C00C8ECF09000C9EBF09000CAEAF09000CB55
:10083C007440F08D82C007C006120503D006D007A5
:10084C000EBE00010F02075A7E947F007D007C00D3
:10085C004305128E828F838DF0EC1221F79000CD20
:10086C00E0FF7E000FBF00010E74FFC0E0E4C0E0AB
:10087C008F828E83122CA9AE82158115819000CDAA
:10088C00EEF0229000D2E060159000D1E02401F04F
:10089C00E0FFBFFF0040169000D2E4F0800F900004
:1008AC00D1E014F0E070069000D27401F09000D109
:1008BC00E0FF7E00C007C0069000C0121C54AF833E
:1008CC00158115817D007E00C3ED9406EE64809445
:1008DC0080502F8D049000C8E4F09000C914F09063
:1008EC0000CA7478F09000CBEFF08C82C007C00681
:1008FC00C005120503D005D006D0070DBD00C90EEA
:10090C0080C67E947F007D007C004305128E828F12
:10091C00838DF0EC0221F79000D4E4F09000D5F038
:10092C009000D6F09000D3E0FFBF5500501A8F0610
:10093C00EE75F003A49000D4D394FFF4F09000D59E
:10094C00EF75F003A4F0803CBFAA00501E8F06EE9A
:10095C0024ABFEFD75F003A49000D5D394FFF4F006
:10096C009000D6EE75F003A4F08019EF2456FF909A
:10097C0000D475F003A4F0EF75F003A49000D6D367
:10098C0094FFF4F09000D4E0FF9000D5E0FE9000CE
:10099C00D6E0FD7B007C00C3EB9406EC6480948075
:1009AC0050378B029000C8EFF09000C9EEF0900029
:1009BC00CAEDF09000CB7440F08A82C007C006C02C
:1009CC0005C004C003120503D003D004D005D00623
:1009DC00D0070BBB00C10C80BE7E947F007D007CD9
:1009EC00004305128E828F838DF0EC1221F790005C
:1009FC00D3E02401F0229001B8E0FEA3E0FFBE0199
:100A0C001DBF001A9001B87402F0E4A3F0902F748B
:100A1C0075F080121155901E171212A88038BE0264
:100A2C001DBF001A9001B87403F0E4A3F0902F7C62
:100A3C0075F080121155901E171212A88018900193
:100A4C00B87401F0E4A3F0902F8775F08012115563
:100A5C00901E171212A89001B8E0FEA3E0FF9001BF
:100A6C00B6EEF0EFA3F09001BE74FFF0A3F02202FB
:100A7C000A7E121540AC82AD83AEF0FF902F47E496
:100A8C0093FA7401938A82C007C006C005C0041291
:100A9C000F33AB82D004D005D006D0078B027B007D
:100AAC009000DBE0F8A3E0F9EAB50006EBB5010233
:100ABC0080169000D7ECF0EDA3F0EEA3F0EFA3F0CE
:100ACC009000DBEAF0EBA3F0C002C0039000D7E08B
:100ADC00F8A3E0F9A3E0FAA3E0FBECC398FCED99D2
:100AEC00FDEE9AFEEF9BFF902F55E493F874019363
:100AFC00F9740293FA740393FBC3EC98ED99EE9A94
:100B0C00EF9BD003D00240209000DDE0FEA3E0FF7D
:100B1C00EAB50605EBB50701229000DDEAF0EBA380
:100B2C00F0EA4B7003020A0222121540AC82AD832C
:100B3C00AEF0FF7A007B00C3EA9403EB64809480F0
:100B4C00400122EA2AF52DEB33F52EE52D252DF566
:100B5C002DE52E33F52EE52D24C0F52BE52E340195
:100B6C00F52CC002C003852B82852C83E0F8A3E012
:100B7C00F9A3E0FAA3E0FBECC398F52FED99F5305F
:100B8C00EE9AF531EF9BF532E52D2459F582E52EE1
:100B9C00342FF583E493F8A3E493F9A3E493FAA335
:100BAC00E493FBC3E52F98E53099E5319AE5329B48
:100BBC00D003D0025003020C43852B82852C83EC8E
:100BCC00F0EDA3F0EEA3F0EFA3F0BA0005BB00022A
:100BDC008010BA0105BB00028025BA025ABB00572F
:100BEC00803AC007C006C005C004C003C002120191
:100BFC00C4D002D003D004D005D006D0078038C0B2
:100C0C0007C006C005C004C003C002120476D0029F
:100C1C00D003D004D005D006D007801BC007C00677
:100C2C00C005C004C003C002120A7BD002D003D09E
:0F0C3C0004D005D006D0070ABA00010B020B4303
:100C4C00C01C85811CAE82AF837C007D007B10EFC5
:100C5C00235401FAEE2EFEEF33FFEC2CFCED33FDAA
:100C6C00EA6003430401E51C24FCF8C3EC96ED0890
:100C7C00964010E51C24FCF8ECC396FCED0896FDA0
:0C0C8C00430601DBCA8E828F83D01C223D
:100C9800C021C0E0C0F0C082C083C007C006C00544
:100CA800C004C003C002C001C000C0D075D000128B
:100CB8001B2CD0D0D000D001D002D003D004D00556
:100CC800D006D007D083D082D0F0D0E0D02132C077
:100CD80021C0E0C0F0C082C083C007C006C005C004
:100CE80004C003C002C001C000C0D075D000309855
:100CF80005122D96C298309905122DD6C299D0D0DA
:100D0800D000D001D002D003D004D005D006D0073F
:100D1800D083D082D0F0D0E0D02132C021C0E0C052
:100D2800F0C082C083C007C006C005C004C003C0AD
:100D380002C001C000C0D075D00030C005122E24FA
:100D4800C2C030C105122E64C2C1D0D0D000D001BB
:100D5800D002D003D004D005D006D007D083D082EB
:100D6800D0F0D0E0D02132C021C0E0C0F0C082C0B5
:100D780083C007C006C005C004C003C002C001C0CC
:100D880000C0D075D0009001DEE0FEA3E0FFC007F0
:100D9800C0068E828F83120069D006D007D0D0D0CB
:100DA80000D001D002D003D004D005D006D007D09F
:100DB80083D082D0F0D0E0D02132C021C0E0C0F092
:100DC800C082C083C007C006C005C004C003C002FB
:100DD800C001C000C0D075D0009001E0E0FEA3E0E3
:100DE800FFC007C0068E828F83120069D006D00725
:100DF800D0D0D000D001D002D003D004D005D00686
:100E0800D007D083D082D0F0D0E0D02132C021C02A
:100E1800E0C0F0C082C083C007C006C005C004C0DF
:100E280003C002C001C000C0D075D0009001D1E05D
:100E3800FEA3E04E600E9001D1E0F8A3E0F58388B0
:100E480082120069D0D0D000D001D002D003D004E3
:100E5800D005D006D007D083D082D0F0D0E0D02102
:100E68003212166912010C120168121DEE80F87513
:030E7800820022D3
:100E7C00E582FF902FE493FEEF902FBC93FF70015F
:100E8C00229000DFE0FD701BBF0209EEF4FC5292D1
:100E9C00EC529322BF0402800122EEF4FC5296EC39
:100EAC00529722BD0214BF0207EE4292EE429322E9
:100EBC00BF0439EE4296EE429722BD0116BF0208DE
:100ECC00EEF45292EE429322BF0421EEF45296EECF
:100EDC00429722BD0316BF0208EE4292EEF45293E3
:100EEC0022BF0408EE4296EEF4FE529722AF82BF68
:100EFC000102800FBF02028013BF03028017BF04E0
:100F0C0025801BE5C620E21E539DFB22E5C620E38F
:100F1C0015539DF722E5C630E20C539DFB22E5C626
:100F2C0030E303539DF722E582FF902F9493FEEF5D
:100F3C00902FE493FDEF902FBC93FF7003F582226A
:100F4C00EE600D8E82C007C005120EF9D005D007D9
:100F5C007E00BF0202800ABF03028009BF040C801E
:100F6C0008AE908006AEA08002AEB0ED5E60047557
:100F7C0082012275820022E582FF902F9493FEEF6E
:100F8C00902FE493FDEF902FBC93FFEE600D8E82BB
:100F9C00C007C005120EF9D005D007A2AFE433FE8E
:100FAC00C2AFBF0202800ABF03028017BF043680A3
:100FBC00249000E0E07007EDF4FF52908027ED42A2
:100FCC009080229000E0E07007EDF4FF52A08015B5
:100FDC00ED42A080109000E0E07007EDF4FF52B0FD
:0B0FEC008003ED42B0EE6002D2AF22A5
:100FF800E58290300C93FFBFFF0475820022759A3A
:101008000974FC5580FE74035F4EF580D2842084F9
:10101800FD859F8222AF829000DF7401F08F82C02D
:1010280007120E7CD0079000E1E0FDA3E0FE4D70B2
:101038000A9000E0E4F08F82020F838D038E04741F
:10104800FF2C500B9000E07401F08F82020F83EFA9
:10105800902F9493FA24FB4054EA2A9010677380E7
:101068004C800680158024803353C6FB439D04437F
:101078009D10E59D30E4FB8D9C2253C6F7439D08E7
:10108800439D10E59D30E4FB8D9B2243C604439DA0
:1010980004439D10E59D30E4FB8D9C2243C6084324
:1010A8009D08439D10E59D30E4FB8D9B22C3EB9486
:1010B80080EC9400500A9000E0E4F08F82020F83E5
:0B10C8009000E07401F08F82020F83A3
:1010D40022AC82AD83AEF0FF9000F1ECF0EDA3F012
:1010E400EEA3F0EFA3F0901E1702127BAC82AD8347
:1010F400AEF0FF9000E3E0FB90011BECF0EDA3F0F9
:10110400EEA3F0EFA3F090011FEBF0901E17021373
:10111400C8AC82AD83AEF0FF9000EDECF0EDA3F02F
:10112400EEA3F0EFA3F0901E1702124EAC82AD8333
:10113400AEF0FF9000E4E0FB90011BECF0EDA3F0B7
:10114400EEA3F0EFA3F090011FEBF0901E17021333
:10115400C8AD82AE83AFF09000EAEDF0EEA3F0EFFD
:10116400A3F0901E170211ECAD82AE83AFF0900095
:10117400E5E0FC9000E6EDF0EEA3F0EFA3F09000C4
:09118400E9ECF0901E1702118E37
:10118E00AE82AF839000E6E0FBA3E0FCA3E0FD7A25
:10119E00009000E9E0F9890019E8603F8B828C83AA
:1011AE008DF0122C8DF8A3AB82AC83C007C006C0A5
:1011BE0005C004C003C002C0011211CC8007C006D6
:1011CE00C007888222A882D001D002D003D004D0DA
:1011DE0005D006D007E860030A80BB8A8222AE8261
:1011EE00AF839000EAE0FBA3E0FCA3E0FD9000EAF1
:1011FE00E0F5F0A3E045F07003F582227A008B82D1
:10120E008C838DF0122C8DF9A3AB82AC83E9F86040
:10121E002CC007C006C005C004C003C002121230A5
:10122E008007C006C007888222A982D002D003D0D0
:10123E0004D005D006D007E960030A80C18A822255
:10124E00AE82AF839000EDE0FAA3E0FBA3E0FCA337
:10125E00E0FD9000F5EAF0EBA3F0ECA3F0EDA3F0C7
:10126E009000F9740AF08E828F830212DFAE82AF85
:10127E00839000F1E0FAA3E0FBA3E0FCA3E0FD9075
:10128E00011BEAF0EBA3F0ECA3F0EDA3F090011F2D
:10129E00740AF08E828F830213C8AE82AF83C007AA
:1012AE00C0061212B58008C006C00775820D22ADA9
:1012BE0082D006D007C007C0051212CC8008C00627
:1012CE00C00775820A22AE82D005D007EE2DF582B8
:1012DE002285823385833490011AE4F09000F9E080
:1012EE00FDBD020050069000F9740AF09000F9E07E
:1012FE00F5357B1A7C019000F5E0F536A3E0F53765
:10130E00A3E0F538A3E0F53985353A753B00753C19
:10131E0000753D00C004C003C03AC03BC03CC03D98
:10132E008536828537838538F0E539121F7EA8828F
:10133E00E58124FCF581C000C03AC03BC03CC03DF5
:10134E008536828537838538F0E53912216DAA827C
:10135E00AD83AEF0FFE58124FCF581D000D003D043
:10136E00049000F5EAF0EDA3F0EEA3F0EFA3F01B6E
:10137E00BBFF011C8B068C07B80A00500888057449
:10138E00302DFD8004743728FD8E828F83EDF09012
:10139E0000F5E0F5F0A3E042F0A3E042F0A3E04553
:1013AE00F060030213049000EAEBF0ECA3F0E4A368
:1013BE00F08533828534830211EC85823E85833F2E
:1013CE0090011FE0FD701B90011BE0F9A3E0FAA352
:1013DE00E0FBA3E0FC1213E88007C03EC03F898209
:1013EE002222BD0A02800302149590011BE0F9A38C
:1013FE00E0FAA3E0FBA3E0FC30E76FC004C003C03B
:10140E0002C0011214168008C03EC03F75822D2204
:10141E00A882D001D002D003D004884090011BC313
:10142E00E499F0E49AA3F0E49BA3F0E49CA3F0907B
:10143E00011BE0F541A3E0F542A3E0F543A3E0F57F
:10144E00449000F5E541F0E542A3F0E543A3F0E555
:10145E0044A3F09000F9740AF0853E82853F831212
:10146E0012DFAF82E5402FF582229000F5E9F0EA17
:10147E00A3F0EBA3F0ECA3F09000F9740AF0853E14
:10148E0082853F830212DF90011BE0FBA3E0FCA3E9
:10149E00E0FEA3E0FF9000F5EBF0ECA3F0EEA3F07E
:1014AE00EFA3F09000F9EDF0853E82853F830212A6
:0114BE00DF4E
:1014C000C0D075D00808B8000D09B900090ABA00E3
:1014D000050BBB00010CD0D032A2AFC2AFA808A947
:1014E00009AA0AAB0BAC8A8588F092AF30F512746A
:1014F000012C600D08B8000909B900050ABA0001FD
:101500000BC3EC9406FCECC313FC75F07DE8A4F867
:10151000ADF075F07DE9A42DF9E435F0FD75F07DB1
:10152000EAA42DFAE435F0FD75F07DEBA42DFB7DEA
:1015300000EC28F582E93DF583EA3DF5F0EB3D222C
:10154000A2AFC2AFA808A909AA0AAB0BAC0C92AF14
:1015500075F020E8A4A8F075F020E9A428F582A889
:10156000F075F020EAA428F583A8F075F020EBA42C
:1015700028F9A8F075F020ECA42889F022858210C3
:1015800085831185F012F5131214D9858214858391
:101590001585F016F517E510451145124513700134
:1015A00022A810A911AA12AB138514188515198544
:1015B000161A85171BE8494A4B60DBC003C002C0FE
:1015C00001C0001214D9AC82AD83AEF0FFD000D0C0
:1015D00001D002D003ECC39518FCED9519FDEE95F2
:1015E0001AFEEF951BFFC3EC94E8ED9403EE940014
:1015F000EF940040A118B8FF0919B9FF051ABAFF06
:10160000011B881089118A128B1374E82518F518AC
:1016100074033519F519E4351AF51AE4351BF51B71
:10162000851814851915851A16851B178087AE82B3
:10163000AF83C374019EE49F40022200C374029EE4
:10164000FE74009FFF00BE0005BF000200220000E4
:101650000000000000000000000000000000000E7C
:10166000BE00EB0FBF00ED002275A15575A1AA7455
:10167000F855B94406F5B975A10090138812162ED5
:10168000121C01121C2B121C1A75DD0075D300757B
:10169000D500759E5D759D0074F055894402F589ED
:0F16A00053C9EF758C06C28DD2A9D28CD2AF225E
:1016B000AFDBBF08028003021A70900007E0FE7FD4
:1016C00000900006E0FD7C004FF545EC4EF5467FAE
:1016D00000900001E0F547900000E0FE5460605388
:1016E000900000E0FE5306607D00BE2005BD0002B4
:1016F000800BBE4039BD00367FFF021A727420B5E0
:101700004703021A727421B5470280077422B54755
:1017100018800C121D43AD82AE838D07021A72C071
:1017200007121D72D007021A727FFF021A727FFF22
:10173000021A72E54724F45003021A6CE547240BA1
:1017400083F582E547241083F583E4734E7C6C3C7B
:101750006C46646C537072721A181A191A18171A98
:1017600018181A1A900003E0FEBE0102800ABE0299
:1017700002800FBE036080147548347549307F12B3
:1017800080567548467549307F46804C900002E08F
:10179000FE24FB4036EE2E90179B738008800E804F
:1017A00014801A802075488C754930801E7548C891
:1017B000754930801675489C754930800E75489083
:1017C00075493080067548B275493085488285492B
:1017D00083E493FF80027FFFBFFF03021A728F052D
:1017E0007E00C3ED9545EE954650048D458E46AD81
:1017F00045AE46C3ED9408EE9400920040067B0887
:101800007C008004AB45AC468B077C00C3EC9F504A
:10181000198C027B00EC2548F582E43549F583E418
:1018200093F98A828B83F00C80E28F037C00EDC3F6
:101830009BFDEE9CFE8D458E46EF2548F548E43530
:1018400049F549021A72900002E0FE8E4575460085
:10185000021A72900120E0900000F0AD45AE46C340
:10186000ED9401EE94005003021A727F01021A7285
:10187000900002E0FE900120F0021A72900000E059
:10188000541F702F900003E0FD7E00900002E0FCEA
:101890007B004206EB4205BE0114BD001190304DA5
:1018A000E493FE30E503021A727FFF021A727FFF93
:1018B000021A72900000E0FE53061F7D00BE027700
:1018C000BD0074900004E0FEBE0102805FBE020213
:1018D0008049BE03028033BE0402801DBE810280A7
:1018E00040BE8202802ABE83028014BE844474BC3F
:1018F00055DE4402F5DE021A7253DE73021A727468
:10190000BC55D64402F5D6021A7253D673021A7227
:1019100074BC55D44402F5D4021A7253D473021A1B
:101920007274BC55D24402F5D2021A7253D27302B9
:101930001A727FFF021A727FFF021A72900000E093
:10194000541F702F900003E0FD7E00900002E0FC29
:101950007B004206EB4205BE0114BD001190304DE4
:10196000E493FE30E503021A727FFF021A727FFFD2
:10197000021A72900000E0FE53061F7D00BE0205B1
:10198000BD00028003021A4A900003E0FD7E009031
:101990000002E0FC7B004206EB4205EE4D600302D4
:1019A0001A46900005E0FD7E00900004E0FC7B00FC
:1019B0004206EB4205BE0106BD0003021A3ABE0212
:1019C00005BD00028060BE0305BD00028044BE0468
:1019D00005BD00028028BE8105BD00028052BE8286
:1019E00005BD00028036BE8305BD0002801ABE849C
:1019F00051BD004E74BF55DE4403F5DE8074747F24
:101A000055DE440CF5DE806A74BF55D64403F5D626
:101A10008060747F55D6440CF5D6805674BF55D47B
:101A20004403F5D4804C747F55D4440CF5D48042E3
:101A300074BF55D24403F5D28038747F55D2440C1C
:101A4000F5D27FFF802C7FFF80287FFF80249000CD
:101A500000E4F0900001F0AD45AE46C3ED9402EE17
:101A6000940040047F02800AAF4580067FFF800219
:101A70007FFFBFFF077547FF75DCCF22EF24F740DC
:101A8000068FDD75DCC02275DD0075DCC0227405B3
:101A9000B54702805D7406B54766AE45AF46C3EEF6
:101AA0009408EF9400920140067C087D008004AC0D
:101AB00045AD467D00C3ED9C50198D027B00ED25A0
:101AC00048F582E43549F583E493F98A828B83F003
:101AD0000D80E28C037D00EEC39BFEEF9DFF8E45E3
:101AE0008F46EC2548F548E43549F5498CDD63DC43
:101AF0004022E5E35480FFE5454FF5E375DC022223
:101B000075DD0075DC02227420B5470D30DE101241
:101B10001CFE75DD0085DCDC2275DD0043DC022265
:101B200075D30074FC55D24402F5D22220D90302A9
:101B30001BD7E5D9540FFFADD95305307E00BD004A
:101B400005BE0002801CBD1005BE00028036BD200F
:101B500005BE00028043BD3006BE0003021BBD026D
:101B60001BD5EF24FB5003021BD5EF2F901B707386
:101B7000800880618009805D805B121B078056129F
:101B80001F608051EF24FB404CEF2F901B8F738020
:101B90004480428040803E803CEF24FB4037EF2F62
:101BA000901BA4738008800B800E80298027121A56
:101BB0008E8022121B20801D121F528018EF24FBE2
:101BC0004013EF2F901BC8738008800980078005A1
:101BD00080031216B0C2D930D81A75DC0275D21241
:101BE00075D41275E300C2DAC2D9C2D8900120E4DC
:101BF000F0121CF610DA0122E5DA20E20375D8FFB4
:101C00002275E20053E27F43E22975E30053E2BF0D
:101C100053D1FB75D18043D1012243E10443E1025A
:101C200043E10143D81FD2EAD2AF227E007F008E6B
:101C3000EC8FED7E0A7F008EEE8FEF7E147F008E9C
:101C4000E48FE575EB0C75D21275D41275EA407508
:031C5000DC022291
:101C5400C01C85811CC082C083E5812405F581AF49
:101C64001C0FE51C2403F8A607087600087640E557
:101C74001C24FCFD7E007F40E51C2406F9A81C08FA
:101C84008604E51C24FCF886038CF0EBA4F709A772
:101C9400F0E51C240604F98704A81C0886037401D3
:101CA4002DFAE43EFE8A828E838FF0122C8D8BF007
:101CB400A4FBE51C2403F8740126FDE40836FE08A1
:101CC40086078D828E838FF0122C8DFDE51C24FCFB
:101CD400F886078DF0EFA42B2CF7E51C2406F98772
:0F1CE400060987078E828F83851C81D01C2232D0
:011CF40032BD
:101CF6009001DAE4F0C202227F00C3E5DB9407928A
:101D06000340067D077E008004ADDB7E008F037CEA
:101D160000C3EB9DEC64808EF063F08095F0501C60
:101D2600EF24D3FDE43401FEEF2400F582E4340011
:101D3600F583E0FC8D828E83F00F80BE227F008FBC
:101D4600057E00C3ED9407EE9400501CEF2400FDC1
:101D5600E43400FEEF24D3F582E43401F583E0FC9D
:101D66008D828E83F00F80D790000722900002E0CC
:101D7600FF9001DCF0E020E0339001D3E0FCA3E02B
:101D8600FDA3E0FEA3E0FFBCB022BD041FBE001C05
:101D9600BF001975E200C2AF75890090C3501216D4
:101DA6002E90C35012162E12380080FE227E007F1F
:101DB600003002200EBE00010F900005C007C006CD
:101DC60012162ED006D007C3EE9450EF94C340E10E
:101DD6007582002275820122751D009001DCE0608B
:101DE60003751D01851D82222002259001DDE0FF7D
:101DF600601E8FD553D4FCD202BF400F121DB3E52F
:101E060082600875D50053D4FCD2029001DDE4F05F
:101E160022AF829001DCE06041C007121DB3E5826B
:101E2600D0077003F582229001DDE0FEBE4000502F
:101E3600207D0074402EFEE43DFDEE2414F582ED77
:101E46003400F583EFF09001DDE02401F0758201A6
:101E560022C007121DEED00780BF75820022AFF0A8
:101E6600AE83E582900123F0EEA3F0EFA3F090019C
:101E7600DCE07003021F1A900121E0FEA3E0FFC31D
:101E8600E49E74808FF063F08095F04003021F1A81
:101E9600C007C006121DB3E582D006D0077003F551
:101EA6008222900123E0FBA3E0FCA3E0FDC3E49EB5
:101EB60074808FF063F08095F050BC9001DDE0FAFD
:101EC600BA400050498A017A00744029F9E43AFA86
:101ED600E92414F9EA3400FA8B828C838DF0122CF3
:101EE6008DF8A3AB82AC83900123EBF0ECA3F0ED6D
:101EF600A3F089828A83E8F09001DDE02401F01ED8
:101F0600BEFF011F900121EEF0EFA3F0809F121D8E
:101F1600EE021E7D758200229001DAE0F5822290A3
:101F260001DAE07003F582229001DBE02414F582E9
:101F3600E43400F583E0FF9001DBE004F09001DA81
:101F4600E014F0E0700353D4F38F822275D5007449
:101F5600FC55D44402F5D4C2022230DE199001DACF
:101F6600E5DBF09001DBE4F09001DAE0600874F361
:071F760055D44408F5D42204
:101F7E00C01C85811CAC82AD83AEF0FF05817B0059
:101F8E00A81C087600E51C24FAF8080808E6235475
:101F9E0001FA704CE51C24FAF8E626F608E633F64C
:101FAE0008E633F608E633F6E51C24FAF8C3EC9699
:101FBE00ED0896EE0896EF0896501AE51C24FAF8EE
:101FCE00080808E6C313F618E613F618E613F61813
:101FDE00E613F6800BA81C0806A81C08860380A52D
:101FEE00E51C24FAF8C3EC96ED0896EE0896EF0879
:101FFE00964015E51C24FAF8ECC396FCED0896FD08
:10200E00EE0896FEEF0896FFE51C24FAF80808087D
:10201E00E6C313F618E613F618E613F618E613F6EB
:10202E008B021BEA70BA8C828D838EF0EF1581D0F5
:10203E001C22C01C85811CC082058105810581E59D
:10204E001C24FBF8A91C0909E6F708E609F708E6BF
:10205E0009F7A81C080886820886830886F0122CC9
:10206E008DFAA3122C8DFBA3122C8DFF74012AFC6A
:10207E00E43BFD8F06A81C08088682088683088626
:10208E00F0EC122F2CA3ED122F2CA3EE122F2C8A74
:10209E00828B838FF0A81C08E6122F2C851C81D012
:1020AE001C22AFF0AE83E58290012AF0EEA3F0EF92
:1020BE00A3F0900126E0FDA3E0FEA3E0FF9001292E
:1020CE00E0FC90013E742AF07401A3F0E4A3F090BA
:1020DE000141EDF0EEA3F0EFA3F0900144ECF0908F
:1020EE0020401222EFAE82AF8390012AE0FBA3E0E4
:1020FE00FCA3E0FD8B828C838DF0E4122F2C8E825C
:10210E008F8322C01CE581F51C24F8FFE51C24FBFF
:10211E00FE7D007C4090013EEEF0EDA3F0ECA3F0CE
:10212E00E51C24F8F8900141E6F008E6A3F008E675
:10213E00A3F0900144EFF09020401222EFAE82AF58
:10214E0083E51C24FBF886030886040886058B822B
:10215E008C838DF0E4122F2C8E828F83D01C22C0A4
:10216E001C85811CC082C083C0F0C0E07A007B0059
:10217E007E007F007D20A81C08080808E623540175
:10218E00FCA81C08E626F608E633F608E633F60841
:10219E00E633F6EA2AFAEB33FBEE33FEEF33FFECCF
:1021AE006003430201E51C24FAF8C3EA96EB089695
:1021BE00EE0896EF0896401CE51C24FAF8EAC39642
:1021CE00FAEB0896FBEE0896FEEF0896FFA81C08A1
:1021DE00E64401F6DDA0A81C0886820886830886E0
:1021EE00F008E6851C81D01C22ABF0A2AFE433FED2
:1021FE00C2AFE0A37A0833D2974002C2977905D9CD
:0D220E00FEC297DAF1DBEBEE6002D2AF22E8
:10221B00E58290013AF0E0FF900130E0C0E0A3E0EE
:10222B00C0E0A3E0C0E0122236800D90012EE0C08A
:10223B00E0A3E0C0E08F822215811581158190010A
:10224B0038E02401F0A3E03400F022E58290013B5A
:10225B00F0E02430FF24C6500D74072FFF90012DA2
:10226B00E060034307208F8202221BE58290013C32
:10227B00F0E0FFC4540FF582C007122256D007536B
:10228B00070F8F82022256E58290013DF0900133B9
:10229B00E0FCA3E0FDA3E0FEA3E0FF900137E0FB31
:1022AB0090013DE0FA79208B00E828F51DEF2354CF
:1022BB0001451DFBEC2CFCED33FDEE33FEEF33FF44
:1022CB00C3EB9A4007EBC39AFB43040119E970D7A0
:1022DB00900133ECF0EDA3F0EEA3F0EFA3F090013F
:1022EB0037EBF022AF83E582900145F0EFA3F0903E
:1022FB000145E0FEA3E0FF90012EEEF0EFA3F0907E
:10230B00013EE0FDA3E0FEA3E0FF900130EDF0EE17
:10231B00A3F0EFA3F0900138E4F0A3F0900141E0BB
:10232B00FDA3E0FEA3E0FF8D828E838FF0122C8D38
:10233B00FC90014174012DF0E43EA3F0EFA3F0EC0F
:10234B007003022BF1BC25028003022BE99001479D
:10235B00E4F0900148F0900149F090014AF09001AF
:10236B004BF090014CF090014DF090014EF090012C
:10237B0050F0900151F0A3F090015314F0A3F090A2
:10238B000141E0FDA3E0FEA3E0FF8D828E838FF081
:10239B00122C8DFBA3AD82AE83900141EDF0EEA329
:1023AB00F0EFA3F0900157EBF0BB25088B821222C4
:1023BB001B022327BB30005003022488EB24C6509A
:1023CB0003022488900153E0F54AA3E0F54B74FF18
:1023DB00B54A63B54B60C005C006C007900151E01C
:1023EB00FAA3E0FF900000EAF0EFA3F090000AC020
:1023FB0005C003121C54AE82AF83D003D0058B02F1
:10240B007D00EA2EFEED3FFFEE24D0FEEF34FFFF02
:10241B00900151EEF0EFA3F0D007D006D00590015C
:10242B0051E0F5F0A3E045F06003022395900148DD
:10243B007401F0022395C005C006C007900000E5AB
:10244B004AF0E54BA3F090000AC006C005C003128A
:10245B001C54AA82AF83D003D005D0067E00EB2A92
:10246B00FAEE3FFFEA24D0FAEF34FFFF900153EA74
:10247B00F0EFA3F0D007D006D005022395900157BB
:10248B00E0FBBB2E2FC005C006C007900153E0FA3E
:10249B00A3E0FFBAFF05BFFF028009D007D006D02B
:1024AB0005022395D007D006D005900153E4F0A385
:1024BB00F0022395BB61004014EB2485400F900183
:1024CB005774DF5BF090012D7401F0800590012DA6
:1024DB00E4F0900157E0FBBB20028075BB2B028020
:1024EB0067BB2D028059BB4202806FBB4302807CCD
:1024FB00BB440302277FBB46030227A5BB4803024D
:10250B002395BB490302277FBB4A03022395BB4C90
:10251B00028050BB4F0302278DBB50030226EDBB3D
:10252B0053028077BB5403022395BB5503022795B7
:10253B00BB580302279DBB5A030223950227AD907C
:10254B0001477401F00223959001497401F00223B5
:10255B009590014A7401F002239590014C7401F09F
:10256B0002239590014D7401F002239590014CE0EC
:10257B00600E900144E014F9F0900157E7F0800FE2
:10258B00900144E024FEFFF08F01900157E7F0909B
:10259B000157E0F58212221B0227BC900144E02474
:1025AB00FDFFF08F01870509870609870719199029
:1025BB000133EDF0EEA3F0EFA3F08D828E838FF05D
:1025CB00122C7585824A85834B900153E0FAA3E068
:1025DB00FDBAFF0DBDFF0A900153E54AF0E54BA391
:1025EB00F0900147E0704B900151E0FAA3E0FDC37E
:1025FB00E54A9AE54B9D503A900151EAC3954AF052
:10260B00ED954BA3F0900151E0FAA3E0FD8A068D06
:10261B00071ABAFF011DEE4F6010758220C005C06E
:10262B000212221BD002D00580E3900151EAF0ED9B
:10263B00A3F0900153E0F54DA3E0F54E900133E08C
:10264B00FAA3E0FDA3E0FF8A828D838FF0122C8D1D
:10265B00F54C603CC3E4954D7480854EF063F0807F
:10266B0095F0502C154D74FFB54D02154E854C82CF
:10267B0012221B900133E0FAA3E0FDA3E0FF0ABA9C
:10268B0000010D900133EAF0EDA3F0EFA3F080AC65
:10269B00900147E070030227BC900151E0FEA3E0DC
:1026AB00FFC3E54A9EE54B9F40030227BC900151B7
:1026BB00EEC3954AF0EF954BA3F0900151E0FEA3CA
:1026CB00E0FF8E028F051EBEFF011FEA4D70030255
:1026DB0027B4758220C007C00612221BD006D00774
:1026EB0080E0900144E024FDFDF08D01874F0987C8
:1026FB00500987511919900133E54FF0E550A3F0BC
:10270B00E551A3F0900135E0FDBD8000400890013C
:10271B00577443F08020BD600040089001577450FF
:10272B00F08013BD400040089001577449F08006BB
:10273B009001577458F0900157E0FDF582C00512D7
:10274B00221B75823A12221B75823012221B758254
:10275B007812221BD005BD4902800EBD50028009A4
:10276B00900134E0F582122276900133E0F582126B
:10277B002276803D90014B7401F0900150740AF069
:10278B00802F9001507408F08027900150740AF04C
:10279B00801F9001507410F0801790014E7401F05F
:1027AB00800F8B8212221B8008900151EEF0EFA359
:1027BB00F090014EE06071900144E024FCFFF08F3B
:1027CB0001870309870509870609870719191990D6
:1027DB000133EBF0EDA3F0EEA3F0EFA3F090013398
:1027EB0074D6F07430A3F07480A3F0900133E0F54D
:1027FB004FA3E0F550A3E0F5517401254FFAE435F2
:10280B0050FBAF51900133EAF0EBA3F0EFA3F0854F
:10281B004F828550838551F0122C8DFF700302235C
:10282B00278F8212221B80C3900150E0700302237A
:10283B002790014CE06047900144E014F9F08707C2
:10284B007E007D007B00900133EFF0EEA3F0EDA353
:10285B00F0EBA3F090014BE060030228FF900133F3
:10286B00E0FBA3E0A3E0A3E07D007E007F009001EE
:10287B0033EBF0EDA3F0EEA3F0EFA3F08076900135
:10288B004DE06028900144E024FCFFF08F018703AA
:10289B00098705098706098707191919900133EB71
:1028AB00F0EDA3F0EEA3F0EFA3F08048900144E02D
:1028BB0024FEFFF08F01870609870719EF3395E098
:1028CB00FDFB900133EEF0EFA3F0EDA3F0EBA3F0E3
:1028DB0090014BE0701E900133E0FBA3E0FDA3E001
:1028EB00A3E07E007F00900133EBF0EDA3F0EEA3AD
:1028FB00F0EFA3F090014BE06041900133E0FBA3BC
:10290B00E0FDA3E0FEA3E0FF30E72B900133E0FBFB
:10291B00A3E0FDA3E0FEA3E0FFC3E49BFBE49DFD6E
:10292B00E49EFEE49FFF900133EBF0EDA3F0EEA3EA
:10293B00F0EFA3F0800590014BE4F090014F740190
:10294B00F0900150E0F54D75525D755301E4F54A79
:10295B00F54B900137E4F0854D8212229290014F96
:10296B00E07033900137E0C454F0F54F900137E03D
:10297B00C4540F454FF54F855282855383E0FFE5D5
:10298B004F4207855282855383EFF0155274FFB582
:10299B0052021553800C900137E0FF85528285530C
:1029AB0083F0054AE4B54A02054B90014FE0B401B0
:1029BB0000E433F0900133E0FAA3E0FBA3E0FEA3C5
:1029CB00E0FFEA4B4E4F708A90015EE552F0E55303
:1029DB00A3F0900155E54AF0E54BA3F0900151E0CF
:1029EB00F5F0A3E045F070099001517401F0E4A3F8
:1029FB00F0900148E0FFE07047900147E07041859F
:102A0B004A52854B53900151E0FAA3E0FBC007AF4C
:102A1B00520F8F067F00C3EE9AEF9BD007501975AC
:102A2B008220C007C003C00212221BD002D003D0E9
:102A3B00071ABAFF011B80D5900151EAF0EBA3F006
:102A4B0090014BE0602075822DC00712221BD0072E
:102A5B00900151E024FFFDA3E034FFFE900151ED06
:102A6B00F0EEA3F08056900155E0F5F0A3E045F0B1
:102A7B00604A900149E0602075822BC00712221B2F
:102A8B00D007900151E024FFFDA3E034FFFE90013D
:102A9B0051EDF0EEA3F0802490014AE0601E7582A8
:102AAB0020C00712221BD007900151E024FFFDA389
:102ABB00E034FFFE900151EDF0EEA3F0900147E002
:102ACB007048900155E0F552A3E0F553900151E0A9
:102ADB00FAA3E0FBC0078A068B071ABAFF011BC3D8
:102AEB00E5529EE5539FD0075053EF60067D307E35
:102AFB000080047D207E008D82C007C003C00212BF
:102B0B00221BD002D003D00780CA900151E0FEA354
:102B1B00E0FF900155E0F552A3E0F553C3E5529E5B
:102B2B00E5539F500F900151EEC39552F0EF955323
:102B3B00A3F08011900151E4F0A3F08008900151B3
:102B4B00EAF0EBA3F090015EE0FEA3E0FF900155ED
:102B5B00E0F552A3E0F553AA52AD53155274FFB5ED
:102B6B0052021553EA4D604590014FE0B40100E469
:102B7B0033F090014FE070140EBE00010F8E828F68
:102B8B0083E0C4540FFD900137F0800E8E828F834B
:102B9B00E0FD53050F900137EDF0900137E0F58222
:102BAB00C007C006122256D006D00780AA90014754
:102BBB00E07003022327900151E0FEA3E0FF8E0398
:102BCB008F051EBEFF011FEB4D700302232775827D
:102BDB0020C007C00612221BD006D00780E08C82D3
:102BEB0012221B022327900138E0FEA3E08E82F510
:022BFB00832233
:102BFD0022AF82BF0200503EEF75F002A424DEFD2D
:102C0D00740135F0FE900160E0FBA3E0FC8D828E37
:102C1D0083EBF0ECA3F0BF00028005BF0118800B21
:102C2D00900162E024FF9288D2A822900162E0FF19
:102C3D0024FF928AD2AA22AF82BF02005028BF0081
:102C4D00028005BF01088004C2A88002C2AAEF75E8
:102C5D00F002A424DEFE740135F0FF8E828F8374A2
:072C6D00FDF0742BA3F0221F
:102C7500AA82AB83122C8D6003A380F8C3E5829AE8
:082C8500F582E5839BF5832233
:102C8D0020F71430F6148883A88220F507E6A88370
:102C9D0075830022E280F7E49322E022C01C858137
:102CAD001CAE82E583FF33E433FD6009C3E49EFB74
:102CBD00E49FFC80048E038F04E51C24FCF808E6D9
:102CCD0030E70FE51C24FCF8C3E496FE08E496FFFC
:102CDD00800AE51C24FCF88606088607C005C00698
:102CED00C0078B828C83122D17AE82AF8315811591
:102CFD0081D005ED600DC3E49EFCE49FFD8C828DBB
:102D0D008380048E828F83D01C22C01C85811CAED3
:102D1D0082AF837D007C00E51C24FCF808E623547B
:102D2D0001FB702FE51C24FCF8E626F608E633F6C9
:102D3D00E51C24FCF8C3EE96EF08965011E51C2413
:102D4D00FCF808E618C313C613C608F680050C8CEC
:102D5D000580C4E51C24FCF8C3EE96EF0896400DE3
:102D6D00E51C24FCF8EEC396FEEF0896FFE51C2447
:102D7D00FCF808E618C313C613C608F68D041DEC3F
:092D8D0070D18E828F83D01C22CC
:102D96009001E2E0FF7E000FBF00010E7410C0E05C
:102DA600E4C0E08F828E83122CA9AE821581158134
:102DB6009001E3E0FFEEB50701229001E2E0246313
:102DC600F582E43401F583E599F09001E2EEF02214
:102DD60030044A9001E4E0FF9001E5E0FEEFB5061D
:102DE60005A204C204229001E5E02473F582E434CE
:102DF60001F583E0F5999001E5E0FF7E000FBF0045
:102E0600010E7410C0E0E4C0E08F828E83122CA9FC
:0E2E1600AE82AF83158115819001E5EEF022AA
:102E24009001E6E0FF7E000FBF00010E7410C0E0C9
:102E3400E4C0E08F828E83122CA9AE8215811581A5
:102E44009001E7E0FFEEB50701229001E6E024835C
:102E5400F582E43401F583E5C1F09001E6EEF02259
:102E640030054A9001E8E0FF9001E9E0FEEFB50685
:102E740005A205C205229001E9E02493F582E43419
:102E840001F583E0F5C19001E9E0FF7E000FBF008A
:102E9400010E7410C0E0E4C0E08F828E83122CA96E
:0E2EA400AE82AF83158115819001E9EEF02218
:102EB200C01C85811CAE82E583FF33E433FD6009CB
:102EC200C3E49EFBE49FFC80048E038F04E51C2474
:102ED200FCF808E633E433FF600FE51C24FCF8C37A
:102EE200E496FA08E496FE800AE51C24FCF88602C1
:102EF200088606C007C005C002C0068B828C8312FA
:102F02000C4CAC82AE8315811581D005D007EF6DD4
:102F1200600DC3E49CFDE49EFF8D828F8380048C50
:102F2200828E83D01C227582002220F71130F61384
:102F32008883A88220F509F6A8837583002280FE83
:052F4200F280F5F02211
:102F470010000B000F000E0020000100000014000D
:102F5700000002000000050000000100000000FF63
:102F6700000000FFFF0000FFFF0025640046587CBB
:102F770053594E430046587C5241494E424F5700E1
:0D2F870046587C425245415448494E47008F
:102F9400000000000000000000000000000000012C
:102FA4000000000000000000000000000000030416
:102FB4000000020000000000010101010101010103
:102FC40000000202020202020202000003030303E1
:102FD40003030303000004040404040404040000C1
:102FE400010204081020408000000102040810209F
:102FF400408000000102040810204080000001020B
:103004000408102040800000FFFFFFFFFFFFFFFFC8
:10301400FFFFFF00FFFF0102FFFFFFFFFFFFFFFFB6
:10302400FFFFFFFFFFFFFFFF03FFFFFFFFFFFFFFA8
:1030340012011001EF020108091250C50101010239
:103044000301090246000201008064080B00020229
:103054000201040904000001020201040524001015
:103064000104240202052406000107058103080067
:103074004009040100020A0000040705020240009E
:103084000007058202400000040309040C03430006
:103094004800350035007800160343004800350029
:1030A400350078006400750069006E006F00160337
:1030B400430044004300200053006500720069008F
:1030C40061006C000E0344006500710069006E002D
:0230D400670093
:0B30D6003C4E4F20464C4F41543E0042
:1030E100690E000000000000000000000000000068
:1030F10000000100010000000000FFFF00000000CF
:0D31010000000000000000000000000001C0
:02310E000000BF
:0B31100000E1000000000800000000CB
:04311B00FD2BFD2B60
:04311F0000000000AC
:0431230000000000A8
:00000001FF
