:0600000002006B020F5527
:03000B000216A634
:03001300020FA831
:01001B0032B2
:03002300020EBD0D
:03002B00021EDAD8
:01003300329A
:03003B00020FFBB6
:03004300020E7E2C
:01004B003282
:03005300020F0990
:01005B003272
:03006300021ED8A2
:0300660002104F36
:02006900E4733E
:0D006B0075815B12310EE5826003020066B4
:10007800794CE94400601B7A019032B078B475A0DD
:1000880001E493F2A308B8000205A0D9F4DAF275E6
:02009800A0FFC7
:06009A00E478FFF6D8FD3A
:1000A0007800E84400600A799475A000E4F309D868
:1000B000FC7820E84401600C7902900094E4F0A3FD
:0400C000D8FCD9FA95
:1000C4009000CDE4F09000CE04F09000CFE4F0A3D3
:1000D400F0A3F0A3F09000D3E4F09000D4F0A3F0E8
:1000E400A3F0A3F09000DBE4F0A3F0A3F0A3F0905E
:1000F40000DF04F0E4A3F09000E104F0E4A3F09046
:0401040000EBE4F038
:0E0108007808E4F608F608F608F6780C76009B
:02011600C20322
:02011800C2051E
:02011A00C2061B
:03011C0002006678
:100120009000EF7401F075821112106290312DE48D
:1001300093FE7401939000EF7402F08E82121062AD
:100140007E007F00C3EE9404EF64809480502CEE18
:100150002EFCEF33FDEC242FF582ED3431F583E4F2
:1001600093FD9000EFE4F08D82C007C0061210628C
:10017000D006D0070EBE00CC0F80C922120B87120A
:100180001726AC82AD83AEF0FF9001B6E0F8A3E095
:10019000F9A3E0FAA3E0FBECC398F522ED99F5236F
:1001A000EE9AF524EF9BF525903137E493F874012E
:1001B00093F9740293FA740393FBC3E52298E52341
:1001C00099E5249AE5259B40119001B6ECF0EDA34A
:1001D000F0EEA3F0EFA3F0020D1B2212024E121755
:1001E00026AC82AD83AEF0FF9001E2E0F8A3E0F927
:1001F000A3E0FAA3E0FBECC398F8ED99F9EE9AFAC4
:10020000EF9BFB9001E6E0600FC3E89405E99400E2
:10021000EA9400EB9400500FC3E89464E99400EA78
:100220009400EB94004026C007C006C005C004122D
:1002300003C5D004D005D006D0079001E6E4F090C5
:1002400001E2ECF0EDA3F0EEA3F0EFA3F0227E00CC
:100250007F00C3EE9404EF64809480400122EE2E70
:10026000FCEF33FDEC242FF582ED3431F583E4937C
:10027000F582C007C0061211DEAD82D006D0078D10
:10028000047D009000AEECF0EDA3F0C3EC9405ED1E
:100290006480948050099000AEE4F0A3F08018C30D
:1002A00074FA9C74808DF063F08095F05009900092
:1002B000AE74FFF0E4A3F0EE2EFCEF33FDEC24BAB5
:1002C000FCED3401FD8C828D83E0FAA3E0FB90000D
:1002D000AEE0F8A3E0F9E8B50206E9B50302804B09
:1002E000EE24C2F582EF3401F5837401F08C828D27
:1002F00083E8F0E9A3F09001CFE060079001C6E445
:10030000F0A3F0C007C006121726AA82AB83ACF098
:10031000FDD006D0079001D0EAF0EBA3F0ECA3F0FB
:10032000EDA3F09001D4EEF0EFA3F09000AEE0FC6E
:10033000A3E0FD8C828D83C007C00612037EAC82D1
:10034000AD83D006D007EE2EFAEF33FBEA24A6FAEF
:10035000EB3400FB8A828B83E0F8A3E0F9ECB50074
:1003600006EDB50102800F8A828B83ECF0EDA3F0DD
:100370009001E67401F00EBE00010F020252AF833D
:10038000E5829000B0F0EFA3F09000B0E0FEA3E0B3
:10039000FFEE2EFCEF33FDEC2CFCED33FDC005C071
:1003A000047455C0E0E4C0E08E828F83123098AEB2
:1003B00082AF8315811581D004D005EE2CFCEF3D72
:1003C0008C82F583229000C6E4F0A3F07E007F00CB
:1003D000C3EE9404EF648094804003020470EE4FF7
:1003E00060209000C6E0FCA3E0FD9000C674012CE4
:1003F000F0E43DA3F0EC24B2F582ED3400F5837413
:100400007CF0EE2EFCEF33FDEC24A6F582ED3400FB
:10041000F583E0F526A3E0F5279000C6E0FAA3E017
:10042000FBEA24B2F8EB3400F97D00C007C006C037
:1004300003C002C026C0277457C0E07431C0E07406
:1004400080C0E0C000C001C0051222F7AC82AD83BD
:10045000E58124F8F581D002D003D006D0079000C2
:10046000C6EC2AF0ED3BA3F00EBE00010F0203D054
:100470009000C6E0FEA3E0FFEE24B2F582EF340068
:10048000F583E4F09000B275F00012133B901FFD6D
:1004900002148E121726AC82AD83AEF0FF9001C617
:1004A000E0F5F0A3E045F070429001D0E0F8A3E061
:1004B000F9A3E0FAA3E0FBECC398FCED99FDEE9AFA
:1004C000FEEF9BFFC3EC94D0ED9407EE9400EF9405
:1004D0000040189001C8E0FEA3E0FF9001C6EEF0D6
:1004E000EFA3F09001D474FFF0A3F09001C6E0FEFA
:1004F000A3E0FFBE0005BF00028020BE0105BF00D3
:1005000002801BBE0205BF00028016BE0305BF00AD
:10051000028011BE0414BF0011800C02059D020769
:100520007E0208AC020A11020A7322E5829000CC16
:10053000F09000CBE0FF9000C8E0F5F0EFA4AEF043
:100540008E059000C9E0F5F0EFA4AEF08E049000A7
:10055000CAE0F5F0EFA4AEF08E079000CCE0FE7B91
:1005600000C007C005C004C006C003900003121EEF
:100570003AAB82AE8315811581D004D005D007EB4C
:100580002494FBEE3400FE8B828E83ECF08B828E03
:1005900083A3EDF08B828E83A3A3EFF0229001D48E
:1005A000E0FEA3E0FFC007C006C006C0079000033E
:1005B000121E3AAC82AD8315811581D006D007ECAE
:1005C000244BFCED3431FD8C828D83E493FB8C82D3
:1005D0008D83A3E493FA8C828D83A3A3E493FDEE31
:1005E0002EFEEF33FFEE24A6F582EF3400F583E014
:1005F000FEA3E0FFC007C006C005C003C00274AA86
:10060000C0E0E4C0E08E828F83123098A982AC8370
:1006100015811581D002D003D005D006D007C005C2
:10062000C004C003C002C00174AAC0E0E4C0E08EF0
:10063000828F83122E8FAE82AF8315811581EF5486
:1006400001A2E0CE13CE13CEFF74AAC0E0E4C0E056
:100650008E828F83120E32AE8215811581D001D029
:1006600002D003D004D00589078B018A008D28E4CD
:10067000F529F52AC3E5299406E52A64809480408B
:1006800003020769C3E5299FE52A64808CF063F0C3
:100690008095F05043C006AE299000C8EBF0900062
:1006A000C9EAF09000CAEDF09000CB7480F08E8221
:1006B000C007C006C005C004C003C002C001C0001E
:1006C00012052BD000D001D002D003D004D005D029
:1006D00006D007D00602075EEFB52946ECB52A42E0
:1006E000C005AD299000C8E9F09000C9E8F090007D
:1006F000CAE528F09000CBEEF08D82C007C006C09E
:1007000005C004C003C002C001C00012052BD00008
:10071000D001D002D003D004D005D006D007D00538
:10072000803CC006AE299000C8E4F09000C9F0906B
:1007300000CAF09000CBF08E82C007C006C005C092
:1007400004C003C002C001C00012052BD000D001BC
:10075000D002D003D004D005D006D007D00605299A
:10076000E4B52902052A0206747E947F007D007C90
:10077000004305128E828F838DF0EC0223DD121769
:1007800026AC82AD83AEF0FF9001CBE0FB7A00C0D7
:1007900007C006C005C0047402C0E0E4C0E08B825C
:1007A0008A83123098AA82AB8315811581D004D038
:1007B00005D006D0077437C39AFAE49BFB8A2BEB6B
:1007C000F52C3395E0F52DF52E9000CFE0F8A3E061
:1007D000F9A3E0FAA3E0FBECC398F8ED99F9EE9ADF
:1007E000FAEF9BFBC3E8952BE9952CEA952DEB9549
:1007F0002E5001229000CFECF0EDA3F0EEA3F0EF2D
:10080000A3F09000CEE060159000CDE02401F0E070
:10081000FFBFFF0040169000CEE4F0800F9000CDA7
:10082000E014F0E070069000CE7401F09000CDE08E
:10083000FF7E009001CAE0FD7C00C005C0048F82ED
:100840008E83121E3AAF83158115817D007E00C311
:10085000ED9406EE64809480503D8D049001CCE0D0
:10086000FB9001CDE0FA9001CEE0F99000C8EBF0EA
:100870009000C9EAF09000CAE9F09000CBEFF08C4C
:1008800082C007C006C00512052BD005D006D007D0
:100890000DBD00BB0E80B87E947F007D007C0043C0
:1008A00005128E828F838DF0EC0223DD121726ACA9
:1008B00082AD83AEF0FF9001CBE0FB7A00C007C0B1
:1008C00006C005C0047402C0E0E4C0E08B828A83E5
:1008D000123098AA82AB8315811581D004D005D03F
:1008E00006D0077437C39AFAE49B8A2FF530339504
:1008F000E0F531F5329000D4E0F8A3E0F9A3E0FA96
:10090000A3E0FBECC398F8ED99F9EE9AFAEF9BFBA4
:10091000C3E8952FE99530EA9531EB9532500122E5
:100920009000D4ECF0EDA3F0EEA3F0EFA3F0900074
:10093000D8E4F09000D9F09000DAF09000D3E0FF16
:10094000BF5500501A8F06EE75F003A49000D8D35F
:1009500094FFF4F09000D9EF75F003A4F0803CBF51
:10096000AA00501E8F06EE24ABFEFD75F003A49086
:1009700000D9D394FFF4F09000DAEE75F003A4F000
:100980008019EF2456FF9000D875F003A4F0EF759E
:10099000F003A49000DAD394FFF4F09000D8E0FFC5
:1009A0009000D9E0FE9000DAE0FD7B007C00C3EB14
:1009B0009406EC64809480503B8B029001CAE0F96D
:1009C0009000C8EFF09000C9EEF09000CAEDF090F2
:1009D00000CBE9F08A82C007C006C005C004C0038E
:1009E00012052BD003D004D005D006D0070BBB00D6
:1009F000BD0C80BA7E947F007D007C004305128E82
:100A0000828F838DF0EC1223DD9000D3E02401F07F
:100A1000227E007F00C3EE9406EF64809480503EF7
:100A20008E059001CCE0FC9001CDE0FB9001CEE082
:100A3000FA9001CAE0F99000C8ECF09000C9EBF020
:100A40009000CAEAF09000CBE9F08D82C007C006A2
:100A500012052BD006D0070EBE00BA0F80B77E94C9
:100A60007F007D007C004305128E828F838DF0EC29
:100A70000223DD7E007F00C3EE9406EF6480948045
:100A800050278E059000C8E4F09000C9F09000CA8D
:100A9000F09000CBF08D82C007C00612052BD00667
:100AA000D0070EBE00D10F80CE7E947F007D007CEB
:100AB000004305128E828F838DF0EC0223DD90318E
:100AC0005A75F08012133B901FFD02148E020AD05B
:100AD000121726AC82AD83AEF0FF90312DE493FA6D
:100AE0007401938A82C007C006C005C004121119A0
:100AF000AB82D004D005D006D0078B027B009000DB
:100B0000DFE0F8A3E0F9EAB50006EBB501028016D4
:100B10009000DBECF0EDA3F0EEA3F0EFA3F090007B
:100B2000DFEAF0EBA3F0C002C0039000DBE0F8A323
:100B3000E0F9A3E0FAA3E0FBECC398FCED99FDEE2D
:100B40009AFEEF9BFF90313BE493F8740193F974A4
:100B50000293FA740393FBC3EC98ED99EE9AEF9B22
:100B6000D003D00240209000E1E0FEA3E0FFEAB510
:100B70000605EBB50701229000E1EAF0EBA3F0EAED
:100B80004B7003020ABE22122104E5827001221278
:100B9000210BAF829000EBE07003BFA5EA9000EB61
:100BA000E0FE04F0EE24E3F582E43400F583EFF098
:100BB0009000EBE0FFBF08CF9000E3E0FF9000E47F
:100BC000E062079000E5E062079000E6E0620790CF
:100BD00000E7E062079000E8E062079000E9E06269
:100BE000079000EAE0FEEFB506099000E375F0001B
:100BF000120BFB9000EBE4F0020B87AFF0AE83E545
:100C0000829000ECF0EEA3F0EFA3F09000ECE0FD9A
:100C1000A3E0FEA3E0FF74012DFAE43EFB8F048AFB
:100C2000828B838CF0122E73FA747F5AFC530280ED
:100C30007B00EA4BB4010092009001CFB3E433F0A3
:100C400074022DF9E43EFA8F0389828A838BF012B5
:100C50002E739001CAF074032DFDE43EFE8D828E4A
:100C6000838FF0122E73FD9001CBF0BD0100500672
:100C70009001CB7401F09001CBE0249B50069001D1
:100C8000CB7464F09000ECE0FDA3E0FEA3E0FF7401
:100C9000042DF9E43EFA8F0389828A838BF0122EA9
:100CA000739001CCF074052DF9E43EFA8F0389822C
:100CB0008A838BF0122E739001CDF074062DFDE423
:100CC0003EFE8D828E838FF0122E739001CEF0EC5B
:100CD000700B9001C87404F0E4A3F08025BC010BF4
:100CE0009001C87403F0E4A3F08017BC030B9001DB
:100CF000C87402F0E4A3F080099001C87401F0E424
:100D0000A3F09001C8E0FEA3E0FF9001C6EEF0EF73
:100D1000A3F09001D474FFF0A3F022121726AC8246
:100D2000AD83AEF0FF7A007B00C3EA9403EB6480EE
:100D30009480400122EA2AF535EB33F536E5352576
:100D400035F535E53633F536E53524D6F533E53674
:100D50003401F534C002C003853382853483E0F862
:100D6000A3E0F9A3E0FAA3E0FBECC398F537ED9913
:100D7000F538EE9AF539EF9BF53AE535243FF582E3
:100D8000E5363431F583E493F8A3E493F9A3E493CF
:100D9000FAA3E493FBC3E53798E53899E5399AE57A
:100DA0003A9BD003D0025003020E2985338285344A
:100DB00083ECF0EDA3F0EEA3F0EFA3F0BA0005BBD7
:100DC00000028010BA0105BB00028025BA025ABB9E
:100DD0000057803AC007C006C005C004C003C00267
:100DE0001201DBD002D003D004D005D006D007809A
:100DF00038C007C006C005C004C003C00212049377
:100E0000D002D003D004D005D006D007801BC00785
:100E1000C006C005C004C003C002120ACDD002D073
:100E200003D004D005D006D0070ABA00010B020D8A
:010E30002998
:100E3200C01C85811CAE82AF837C007D007B10EFDD
:100E4200235401FAEE2EFEEF33FFEC2CFCED33FDC2
:100E5200EA6003430401E51C24FCF8C3EC96ED08A8
:100E6200964010E51C24FCF8ECC396FCED0896FDB8
:0C0E7200430601DBCA8E828F83D01C2255
:100E7E00C021C0E0C0F0C082C083C007C006C0055C
:100E8E00C004C003C002C001C000C0D075D00012A3
:100E9E001D12D0D0D000D001D002D003D004D00586
:100EAE00D006D007D083D082D0F0D0E0D02132C08F
:100EBE0021C0E0C0F0C082C083C007C006C005C01C
:100ECE0004C003C002C001C000C0D075D00030986D
:100EDE0005122F7CC298309905122FBCC299D0D022
:100EEE00D000D001D002D003D004D005D006D00758
:100EFE00D083D082D0F0D0E0D02132C021C0E0C06B
:100F0E00F0C082C083C007C006C005C004C003C0C5
:100F1E0002C001C000C0D075D00030C00512300A2A
:100F2E00C2C030C10512304AC2C1D0D0D000D001EB
:100F3E00D002D003D004D005D006D007D083D08203
:100F4E00D0F0D0E0D02132C021C0E0C0F0C082C0CD
:100F5E0083C007C006C005C004C003C002C001C0E4
:100F6E0000C0D075D0009001F4E0FEA3E0FFC007F2
:100F7E00C0068E828F83120069D006D007D0D0D0E3
:100F8E0000D001D002D003D004D005D006D007D0B7
:100F9E0083D082D0F0D0E0D02132C021C0E0C0F0AA
:100FAE00C082C083C007C006C005C004C003C00213
:100FBE00C001C000C0D075D0009001F6E0FEA3E0E5
:100FCE00FFC007C0068E828F83120069D006D0073D
:100FDE00D0D0D000D001D002D003D004D005D0069E
:100FEE00D007D083D082D0F0D0E0D02132C021C043
:100FFE00E0C0F0C082C083C007C006C005C004C0F8
:10100E0003C002C001C000C0D075D0009001E7E05F
:10101E00FEA3E04E600E9001E7E0F8A3E0F58388B2
:10102E0082120069D0D0D000D001D002D003D004FB
:10103E00D005D006D007D083D082D0F0D0E0D0211A
:10104E003212184F12012012017C121FD480F87533
:03105E00820022EB
:10106200E582FF9031B393FEEF90318B93FF7001D5
:10107200229000EFE0FD701BBF0209EEF4FC5292D9
:10108200EC529322BF0402800122EEF4FC5296EC51
:10109200529722BD0214BF0207EE4292EE42932201
:1010A200BF0439EE4296EE429722BD0116BF0208F6
:1010B200EEF45292EE429322BF0421EEF45296EEE7
:1010C200429722BD0316BF0208EE4292EEF45293FB
:1010D20022BF0408EE4296EEF4FE529722AF82BF80
:1010E2000102800FBF02028013BF03028017BF04F8
:1010F20025801BE5C620E21E539DFB22E5C620E3A8
:1011020015539DF722E5C630E20C539DFB22E5C63E
:1011120030E303539DF722E582FF90316393FEEFA4
:101122009031B393FDEF90318B93FF7003F58222E0
:10113200EE600D8E82C007C0051210DFD005D00709
:101142007E00BF0202800ABF03028009BF040C8036
:1011520008AE908006AEA08002AEB0ED5E6004756F
:1011620082012275820022E582FF90316393FEEFB5
:101172009031B393FDEF90318B93FFEE600D8E8231
:10118200C007C0051210DFD005D007A2AFE433FEBE
:10119200C2AFBF0202800ABF03028017BF043680BB
:1011A200249000F0E07007EDF4FF52908027ED42AA
:1011B2009080229000F0E07007EDF4FF52A08015BD
:1011C200ED42A080109000F0E07007EDF4FF52B005
:0B11D2008003ED42B0EE6002D2AF22BD
:1011DE00E5829031DB93FFBFFF0475820022759A82
:1011EE000974FC5580FE74035F4EF580D284208412
:1011FE00FD859F8222AF829000EF7401F08F82C036
:10120E0007121062D0079000F1E0FDA3E0FE4D70D2
:10121E000A9000F0E4F08F820211698D038E04743F
:10122E00FF2C500B9000F07401F08F82021169EFC9
:10123E0090316393FA24FB4054EA2A90124D738046
:10124E004C800680158024803353C6FB439D044397
:10125E009D10E59D30E4FB8D9C2253C6F7439D08FF
:10126E00439D10E59D30E4FB8D9B2243C604439DB8
:10127E0004439D10E59D30E4FB8D9C2243C608433C
:10128E009D08439D10E59D30E4FB8D9B22C3EB949E
:10129E0080EC9400500A9000F0E4F08F8202116905
:0B12AE009000F07401F08F82021169C3
:1012BA0022AC82AD83AEF0FF900101ECF0EDA3F019
:1012CA00EEA3F0EFA3F0901FFD021461AC82AD8390
:1012DA00AEF0FF9000F3E0FB90012BECF0EDA3F0F1
:1012EA00EEA3F0EFA3F090012FEBF0901FFD021593
:1012FA00AEAC82AD83AEF0FF9000FDECF0EDA3F052
:10130A00EEA3F0EFA3F0901FFD021434AC82AD837C
:10131A00AEF0FF9000F4E0FB90012BECF0EDA3F0AF
:10132A00EEA3F0EFA3F090012FEBF0901FFD021552
:10133A00AEAD82AE83AFF09000FAEDF0EEA3F0EF1F
:10134A00A3F0901FFD0213D2AD82AE83AFF09000DE
:10135A00F5E0FC9000F6EDF0EEA3F0EFA3F09000BC
:09136A00F9ECF0901FFD02137470
:10137400AE82AF839000F6E0FBA3E0FCA3E0FD7A2D
:10138400009000F9E0F9890019E8603F8B828C83B2
:101394008DF0122E73F8A3AB82AC83C007C006C0D5
:1013A40005C004C003C002C0011213B28007C00606
:1013B400C007888222A882D001D002D003D004D0F2
:1013C40005D006D007E860030A80BB8A8222AE8279
:1013D400AF839000FAE0FBA3E0FCA3E0FD9000FAE9
:1013E400E0F5F0A3E045F07003F582227A008B82E9
:1013F4008C838DF0122E73F9A3AB82AC83E9F86071
:101404002CC007C006C005C004C003C002121416D5
:101414008007C006C007888222A982D002D003D0E8
:1014240004D005D006D007E960030A80C18A82226D
:10143400AE82AF839000FDE0FAA3E0FBA3E0FCA33F
:10144400E0FD900105EAF0EBA3F0ECA3F0EDA3F0CE
:10145400900109740AF08E828F830214C5AE82AFA4
:1014640083900101E0FAA3E0FBA3E0FCA3E0FD907C
:10147400012BEAF0EBA3F0ECA3F0EDA3F090012F25
:10148400740AF08E828F830215AEAE82AF83C007DA
:10149400C00612149B8008C006C00775820D22ADD9
:1014A40082D006D007C007C0051214B28008C00657
:1014B400C00775820A22AE82D005D007EE2DF582D0
:1014C4002285823B85833C90012AE4F0900109E067
:1014D400FDBD02005006900109740AF0900109E074
:1014E400F53D7B2A7C01900105E0F53EA3E0F53F44
:1014F400A3E0F540A3E0F541853D42754300754402
:1015040000754500C004C003C042C043C044C04588
:10151400853E82853F838540F0E541122164A8829F
:10152400E58124FCF581C000C042C043C044C045ED
:10153400853E82853F838540F0E541122353AA828C
:10154400AD83AEF0FFE58124FCF581D000D003D05B
:1015540004900105EAF0EDA3F0EEA3F0EFA3F01B75
:10156400BBFF011C8B068C07B80A00500888057461
:10157400302DFD8004743728FD8E828F83EDF0902A
:101584000105E0F5F0A3E042F0A3E042F0A3E0455A
:10159400F060030214EA9000FAEBF0ECA3F0E4A389
:1015A400F0853B82853C830213D28582468583473E
:1015B40090012FE0FD701B90012BE0F9A3E0FAA34A
:1015C400E0FBA3E0FC1215CE8007C046C047898229
:1015D4002222BD0A02800302167B90012BE0F9A3AC
:1015E400E0FAA3E0FBA3E0FC30E76FC004C003C053
:1015F40002C0011215FC8008C046C04775822D2226
:10160400A882D001D002D003D004884890012BC313
:10161400E499F0E49AA3F0E49BA3F0E49CA3F09093
:10162400012BE0F549A3E0F54AA3E0F54BA3E0F56F
:101634004C900105E549F0E54AA3F0E54BA3F0E53C
:101644004CA3F0900109740AF08546828547831201
:1016540014C5AF82E5482FF58222900105E9F0EA2E
:10166400A3F0EBA3F0ECA3F0900109740AF0854613
:10167400828547830214C590012BE0FBA3E0FCA301
:10168400E0FEA3E0FF900105EBF0ECA3F0EEA3F085
:10169400EFA3F0900109EDF085468285478302149B
:0116A400C580
:1016A600C0D075D00808B8000D09B900090ABA00FB
:1016B600050BBB00010CD0D032A2AFC2AFA808A95F
:1016C60009AA0AAB0BAC8A8588F092AF30F5127482
:1016D600012C600D08B8000909B900050ABA000115
:1016E6000BC3EC9406FCECC313FC75F07DE8A4F880
:1016F600ADF075F07DE9A42DF9E435F0FD75F07DCA
:10170600EAA42DFAE435F0FD75F07DEBA42DFB7D02
:1017160000EC28F582E93DF583EA3DF5F0EB3D2244
:10172600A2AFC2AFA808A909AA0AAB0BAC0C92AF2C
:1017360075F020E8A4A8F075F020E9A428F582A8A1
:10174600F075F020EAA428F583A8F075F020EBA444
:1017560028F9A8F075F020ECA42889F022858210DB
:1017660085831185F012F5131216BF8582148583C1
:101776001585F016F517E51045114512451370014C
:1017860022A810A911AA12AB13851418851519855C
:10179600161A85171BE8494A4B60DBC003C002C016
:1017A60001C0001216BFAC82AD83AEF0FFD000D0F0
:1017B60001D002D003ECC39518FCED9519FDEE950A
:1017C6001AFEEF951BFFC3EC94E8ED9403EE94002C
:1017D600EF940040A118B8FF0919B9FF051ABAFF1E
:1017E600011B881089118A128B1374E82518F518C5
:1017F60074033519F519E4351AF51AE4351BF51B8A
:10180600851814851915851A16851B178087AE82CB
:10181600AF83C374019EE49F40022200C374029EFC
:10182600FE74009FFF00BE0005BF000200220000FC
:101836000000000000000000000000000000000E94
:10184600BE00EB0FBF00ED002275A15575A1AA746D
:10185600F855B94406F5B975A10090138812181405
:10186600121DE7121E11121E0075DD0075D30075DC
:10187600D500759E5D759D0074F055894402F58905
:0F18860053C9EF758C06C28DD2A9D28CD2AF2276
:10189600AFDBBF08028003021C56900007E0FE7F04
:1018A60000900006E0FD7C004FF54DEC4EF54E7FB6
:1018B60000900001E0F54F900000E0FE5460605398
:1018C600900000E0FE5306607D00BE2005BD0002CC
:1018D600800BBE4039BD00367FFF021C587420B510
:1018E6004F03021C587421B54F0280077422B54F6E
:1018F60018800C121F29AD82AE838D07021C58C0BA
:1019060007121F58D007021C587FFF021C587FFF82
:10191600021C58E54F24F45003021C52E54F240BD9
:1019260083F582E54F241083F583E47334625222F3
:10193600522C4A52395658581C1A1C1B1C1A191C70
:101946001A1A1C1C900003E0FEBE0102800ABE02A9
:1019560002800FBE036080147550037551327F12EA
:1019660080567550157551327F46804C900002E0C6
:10197600FE24FB4036EE2E901981738008800E807F
:1019860014801A802075505B755132801E755097F1
:10199600755132801675506B755132800E75505FD9
:1019A6007551328006755081755132855082855148
:1019B60083E493FF80027FFFBFFF03021C588F055D
:1019C6007E00C3ED954DEE954E50048D4D8E4EAD79
:1019D6004DAE4EC3ED9408EE9400920140067B088E
:1019E6007C008004AB4DAC4E8B077C00C3EC9F5053
:1019F600198C027B00EC2550F582E43551F583E421
:101A060093F98A828B83F00C80E28F037C00EDC30E
:101A16009BFDEE9CFE8D4D8E4EEF2550F550E43528
:101A260051F551021C58900002E0FE8E4D754E0095
:101A3600021C58900130E0900000F0AD4DAE4EC350
:101A4600ED9401EE94005003021C587F01021C58CD
:101A5600900002E0FE900130F0021C58900000E079
:101A6600541F702F900003E0FD7E00900002E0FC02
:101A76007B004206EB4205BE0114BD001190321CEC
:101A8600E493FE30E503021C587FFF021C587FFFDB
:101A9600021C58900000E0FE53061F7D00BE027730
:101AA600BD0074900004E0FEBE0102805FBE02022B
:101AB6008049BE03028033BE0402801DBE810280BF
:101AC60040BE8202802ABE83028014BE844474BC57
:101AD60055DE4402F5DE021C5853DE73021C5874B0
:101AE600BC55D64402F5D6021C5853D673021C5870
:101AF60074BC55D44402F5D4021C5853D473021C4A
:101B06005874BC55D24402F5D2021C5853D2730203
:101B16001C587FFF021C587FFF021C58900000E0F3
:101B2600541F702F900003E0FD7E00900002E0FC41
:101B36007B004206EB4205BE0114BD001190321C2B
:101B4600E493FE30E503021C587FFF021C587FFF1A
:101B5600021C58900000E0FE53061F7D00BE0205E1
:101B6600BD00028003021C30900003E0FD7E009061
:101B76000002E0FC7B004206EB4205EE4D600302EC
:101B86001C2C900005E0FD7E00900004E0FC7B002C
:101B96004206EB4205BE0106BD0003021C20BE0242
:101BA60005BD00028060BE0305BD00028044BE0480
:101BB60005BD00028028BE8105BD00028052BE829E
:101BC60005BD00028036BE8305BD0002801ABE84B4
:101BD60051BD004E74BF55DE4403F5DE8074747F3C
:101BE60055DE440CF5DE806A74BF55D64403F5D63F
:101BF6008060747F55D6440CF5D6805674BF55D494
:101C06004403F5D4804C747F55D4440CF5D48042FB
:101C160074BF55D24403F5D28038747F55D2440C34
:101C2600F5D27FFF802C7FFF80287FFF80249000E5
:101C360000E4F0900001F0AD4DAE4EC3ED9402EE1F
:101C4600940040047F02800AAF4D80067FFF800229
:101C56007FFFBFFF07754FFF75DCCF22EF24F740EC
:101C6600068FDD75DCC02275DD0075DCC0227405CB
:101C7600B54F02805D7406B54F66AE4DAF4EC3EEEE
:101C86009408EF9400920240067C087D008004AC24
:101C96004DAD4E7D00C3ED9C50198D027B00ED25A8
:101CA60050F582E43551F583E493F98A828B83F00B
:101CB6000D80E28C037D00EEC39BFEEF9DFF8E4DF3
:101CC6008F4EEC2550F550E43551F5518CDD63DC33
:101CD6004022E5E35480FFE54D4FF5E375DC022233
:101CE60075DD0075DC02227420B54F0D30DE101252
:101CF6001EE475DD0085DCDC2275DD0043DC022296
:101D060075D30074FC55D24402F5D22220D90302C1
:101D16001DBDE5D9540FFFADD95305307E00BD007A
:101D260005BE0002801CBD1005BE00028036BD2027
:101D360005BE00028043BD3006BE0003021DA3029D
:101D46001DBBEF24FB5003021DBBEF2F901D5673E6
:101D5600800880618009805D805B121CED805612D0
:101D660021468051EF24FB404CEF2F901D75738068
:101D76004480428040803E803CEF24FB4037EF2F7A
:101D8600901D8A738008800B800E80298027121C84
:101D9600748022121D06801D1221388018EF24FB44
:101DA6004013EF2F901DAE738008800980078005D1
:101DB6008003121896C2D930D81A75DC0275D21271
:101DC60075D41275E300C2DAC2D9C2D8900130E4E4
:101DD600F0121EDC10DA0122E5DA20E20375D8FFE4
:101DE6002275E20053E27F43E22975E30053E2BF26
:101DF60053D1FB75D18043D1012243E10443E10273
:101E060043E10143D81FD2EAD2AF227E007F008E83
:101E1600EC8FED7E0A7F008EEE8FEF7E147F008EB4
:101E2600E48FE575EB0C75D21275D41275EA407520
:031E3600DC0222A9
:101E3A00C01C85811CC082C083E5812405F581AF61
:101E4A001C0FE51C2403F8A607087600087640E56F
:101E5A001C24FCFD7E007F40E51C2406F9A81C0812
:101E6A008604E51C24FCF886038CF0EBA4F709A78A
:101E7A00F0E51C240604F98704A81C0886037401EB
:101E8A002DFAE43EFE8A828E838FF0122E738BF037
:101E9A00A4FBE51C2403F8740126FDE40836FE08B9
:101EAA0086078D828E838FF0122E73FDE51C24FC2B
:101EBA00F886078DF0EFA42B2CF7E51C2406F9878A
:0F1ECA00060987078E828F83851C81D01C2232E8
:011EDA0032D5
:101EDC009001F0E4F0C203227F00C3E5DB9407928B
:101EEC000440067D077E008004ADDB7E008F037C02
:101EFC0000C3EB9DEC64808EF063F08095F0501C79
:101F0C00EF24E9FDE43401FEEF2400F582E4340013
:101F1C00F583E0FC8D828E83F00F80BE227F008FD4
:101F2C00057E00C3ED9407EE9400501CEF2400FDD9
:101F3C00E43400FEEF24E9F582E43401F583E0FC9F
:101F4C008D828E83F00F80D790000722900002E0E4
:101F5C00FF9001F2F0E020E0339001E9E0FCA3E017
:101F6C00FDA3E0FEA3E0FFBCB022BD041FBE001C1D
:101F7C00BF001975E200C2AF75890090C3501218EA
:101F8C001490C35012181412380080FE227E007F69
:101F9C00003003200EBE00010F900005C007C006E4
:101FAC00121814D006D007C3EE9450EF94C340E13E
:101FBC007582002275820122751D009001F2E0608D
:101FCC0003751D01851D82222003259001F3E0FF7E
:101FDC00601E8FD553D4FCD203BF400F121F99E55E
:101FEC0082600875D50053D4FCD2039001F3E4F061
:101FFC0022AF829001F2E06041C007121F99E58286
:10200C00D0077003F582229001F3E0FEBE40005031
:10201C00207D0074402EFEE43DFDEE2414F582ED8F
:10202C003400F583EFF09001F3E02401F0758201A8
:10203C0022C007121FD4D00780BF75820022AFF0D8
:10204C00AE83E582900133F0EEA3F0EFA3F09001A4
:10205C00F2E07003022100900131E0FEA3E0FFC327
:10206C00E49E74808FF063F08095F04003022100B1
:10207C00C007C006121F99E582D006D0077003F581
:10208C008222900133E0FBA3E0FCA3E0FDC3E49EBD
:10209C0074808FF063F08095F050BC9001F3E0FAFF
:1020AC00BA400050498A017A00744029F9E43AFA9E
:1020BC00E92414F9EA3400FA8B828C838DF0122E09
:1020CC0073F8A3AB82AC83900133EBF0ECA3F0ED8F
:1020DC00A3F089828A83E8F09001F3E02401F01EDA
:1020EC00BEFF011F900131EEF0EFA3F0809F121F95
:1020FC00D4022063758200229001F0E0F5822290D8
:10210C0001F0E07003F582229001F1E02414F582D5
:10211C00E43400F583E0FF9001F1E004F09001F06D
:10212C00E014F0E0700353D4F38F822275D5007461
:10213C00FC55D44402F5D4C2032230DE199001F0D0
:10214C00E5DBF09001F1E4F09001F0E0600874F34D
:07215C0055D44408F5D4221C
:10216400C01C85811CAC82AD83AEF0FF05817B0071
:10217400A81C087600E51C24FAF8080808E623548D
:1021840001FA704CE51C24FAF8E626F608E633F664
:1021940008E633F608E633F6E51C24FAF8C3EC96B1
:1021A400ED0896EE0896EF0896501AE51C24FAF806
:1021B400080808E6C313F618E613F618E613F6182B
:1021C400E613F6800BA81C0806A81C08860380A545
:1021D400E51C24FAF8C3EC96ED0896EE0896EF0891
:1021E400964015E51C24FAF8ECC396FCED0896FD20
:1021F400EE0896FEEF0896FFE51C24FAF808080896
:10220400E6C313F618E613F618E613F618E613F603
:102214008B021BEA70BA8C828D838EF0EF1581D00D
:102224001C22C01C85811CC082058105810581E5B5
:102234001C24FBF8A91C0909E6F708E609F708E6D7
:1022440009F7A81C080886820886830886F0122EDF
:1022540073FAA3122E73FBA3122E73FF74012AFCCC
:10226400E43BFD8F06A81C0808868208868308863E
:10227400F0EC123112A3ED123112A3EE1231128AD4
:10228400828B838FF0A81C08E6123112851C81D042
:102294001C22AFF0AE83E58290013AF0EEA3F0EF9A
:1022A400A3F0900136E0FDA3E0FEA3E0FF90013926
:1022B400E0FC90014E743AF07401A3F0E4A3F090B2
:1022C4000151EDF0EEA3F0EFA3F0900154ECF09087
:1022D40022261224D5AE82AF8390013AE0FBA3E01C
:1022E400FCA3E0FD8B828C838DF0E41231128E828C
:1022F4008F8322C01CE581F51C24F8FFE51C24FB18
:10230400FE7D007C4090014EEEF0EDA3F0ECA3F0D6
:10231400E51C24F8F8900151E6F008E6A3F008E67D
:10232400A3F0900154EFF09022261224D5AE82AF90
:1023340083E51C24FBF886030886040886058B8243
:102344008C838DF0E41231128E828F83D01C22C0D4
:102354001C85811CC082C083C0F0C0E07A007B0071
:102364007E007F007D20A81C08080808E62354018D
:10237400FCA81C08E626F608E633F608E633F60859
:10238400E633F6EA2AFAEB33FBEE33FEEF33FFECE7
:102394006003430201E51C24FAF8C3EA96EB0896AD
:1023A400EE0896EF0896401CE51C24FAF8EAC3965A
:1023B400FAEB0896FBEE0896FEEF0896FFA81C08B9
:1023C400E64401F6DDA0A81C0886820886830886F8
:1023D400F008E6851C81D01C22ABF0A2AFE433FEEA
:1023E400C2AFE0A37A0833D2974002C2977905D9E5
:0D23F400FEC297DAF1DBEBEE6002D2AF2201
:10240100E58290014AF0E0FF900140E0C0E0A3E0E6
:10241100C0E0A3E0C0E012241C800D90013EE0C0AA
:10242100E0A3E0C0E08F8222158115811581900122
:1024310048E02401F0A3E03400F022E58290014B52
:10244100F0E02430FF24C6500D74072FFF90013DAA
:10245100E060034307208F82022401E58290014C52
:10246100F0E0FFC4540FF582C00712243CD007539B
:10247100070F8F8202243CE58290014DF0900143C9
:10248100E0FCA3E0FDA3E0FEA3E0FF900147E0FB39
:1024910090014DE0FA79208B00E828F51DEF2354D7
:1024A10001451DFBEC2CFCED33FDEE33FEEF33FF5C
:1024B100C3EB9A4007EBC39AFB43040119E970D7B8
:1024C100900143ECF0EDA3F0EEA3F0EFA3F0900147
:1024D10047EBF022AF83E582900155F0EFA3F09036
:1024E1000155E0FEA3E0FF90013EEEF0EFA3F09076
:1024F100014EE0FDA3E0FEA3E0FF900140EDF0EE10
:10250100A3F0EFA3F0900148E4F0A3F0900151E0B3
:10251100FDA3E0FEA3E0FF8D828E838FF0122E7368
:10252100FC90015174012DF0E43EA3F0EFA3F0EC17
:102531007003022DD7BC25028003022DCF900157D5
:10254100E4F0900158F0900159F090015AF0900197
:102551005BF090015CF090015DF090015EF0900104
:1025610060F0900161F0A3F090016314F0A3F0908A
:102571000151E0FDA3E0FEA3E0FF8D828E838FF089
:10258100122E73FBA3AD82AE83900151EDF0EEA349
:10259100F0EFA3F0900167EBF0BB25088B821224CA
:1025A1000102250DBB3000500302266EEB24C650FC
:1025B1000302266E900163E0F552A3E0F55374FF28
:1025C100B55263B55360C005C006C007900161E014
:1025D100FAA3E0FF900000EAF0EFA3F090000AC038
:1025E10005C003121E3AAE82AF83D003D0058B0221
:1025F1007D00EA2EFEED3FFFEE24D0FEEF34FFFF1B
:10260100900161EEF0EFA3F0D007D006D005900164
:1026110061E0F5F0A3E045F0600302257B900158ED
:102621007401F002257BC005C006C007900000E5DB
:1026310052F0E553A3F090000AC006C005C0031292
:102641001E3AAA82AF83D003D005D0067E00EB2AC2
:10265100FAEE3FFFEA24D0FAEF34FFFF900163EA7C
:10266100F0EFA3F0D007D006D00502257B900167DB
:10267100E0FBBB2E2FC005C006C007900163E0FA46
:10268100A3E0FFBAFF05BFFF028009D007D006D043
:102691000502257BD007D006D005900163E4F0A3A5
:1026A100F002257BBB61004014EB2485400F9001B3
:1026B1006774DF5BF090013D7401F0800590013D8E
:1026C100E4F0900167E0FBBB20028075BB2B028028
:1026D10067BB2D028059BB4202806FBB4302807CE5
:1026E100BB4403022965BB460302298BBB48030295
:1026F100257BBB4903022965BB4A0302257BBB4CF1
:10270100028050BB4F03022973BB50030228D3BB85
:1027110053028077BB540302257BBB550302297BFF
:10272100BB5803022983BB5A0302257B02299390DC
:1027310001577401F002257B9001597401F00225C3
:102741007B90015A7401F002257B90015C7401F0C9
:1027510002257B90015D7401F002257B90015CE014
:10276100600E900154E014F9F0900167E7F0800FDA
:10277100900154E024FEFFF08F01900167E7F09093
:102781000167E0F5821224010229A2900154E0249C
:10279100FDFFF08F01870509870609870719199041
:1027A1000143EDF0EEA3F0EFA3F08D828E838FF065
:1027B100122E5B858252858353900163E0FAA3E078
:1027C100FDBAFF0DBDFF0A900163E552F0E553A389
:1027D100F0900157E0704B900161E0FAA3E0FDC376
:1027E100E5529AE5539D503A900161EAC39552F042
:1027F100ED9553A3F0900161E0FAA3E0FD8A068D07
:10280100071ABAFF011DEE4F6010758220C005C086
:1028110002122401D002D00580E3900161EAF0EDBB
:10282100A3F0900163E0F555A3E0F556900143E074
:10283100FAA3E0FDA3E0FF8A828D838FF0122E734D
:10284100F554603CC3E4955574808556F063F0807F
:1028510095F0502C155574FFB555021556855482C7
:10286100122401900143E0FAA3E0FDA3E0FF0ABABC
:1028710000010D900143EAF0EDA3F0EFA3F080AC6D
:10288100900157E070030229A2900161E0FEA3E0EC
:10289100FFC3E5529EE5539F40030229A2900161C7
:1028A100EEC39552F0EF9553A3F0900161E0FEA3C2
:1028B100E0FF8E028F051EBEFF011FEA4D7003026D
:1028C100299A758220C007C006122401D006D007BC
:1028D10080E0900154E024FDFDF08D0187570987C8
:1028E100580987591919900143E557F0E558A3F0A4
:1028F100E559A3F0900145E0FDBD8000400890013D
:10290100677443F08020BD600040089001677450F7
:10291100F08013BD400040089001677449F08006C3
:102921009001677458F0900167E0FDF582C00512CF
:10293100240175823A1224017582301224017582B4
:1029410078122401D005BD4902800EBD50028009D4
:10295100900144E0F58212245C900143E0F582127B
:10296100245C803D90015B7401F0900160740AF079
:10297100802F9001607408F08027900160740AF044
:10298100801F9001607410F0801790015E7401F057
:10299100800F8B821224018008900161EEF0EFA379
:1029A100F090015EE06071900154E024FCFFF08F33
:1029B10001870309870509870609870719191990EE
:1029C1000143EBF0EDA3F0EEA3F0EFA3F090014390
:1029D10074A5F07432A3F07480A3F0900143E0F584
:1029E10057A3E0F558A3E0F55974012557FAE435EA
:1029F10058FBAF59900143EAF0EBA3F0EFA3F08548
:102A010057828558838559F0122E73FF7003022572
:102A11000D8F8212240180C3900160E070030225B2
:102A21000D90015CE06047900154E014F9F08707D4
:102A31007E007D007B00900143EFF0EEA3F0EDA35B
:102A4100F0EBA3F090015BE06003022AE590014303
:102A5100E0FBA3E0A3E0A3E07D007E007F00900106
:102A610043EBF0EDA3F0EEA3F0EFA3F0807690013D
:102A71005DE06028900154E024FCFFF08F018703A2
:102A8100098705098706098707191919900143EB79
:102A9100F0EDA3F0EEA3F0EFA3F08048900154E035
:102AA10024FEFFF08F01870609870719EF3395E0B0
:102AB100FDFB900143EEF0EFA3F0EDA3F0EBA3F0EB
:102AC10090015BE0701E900143E0FBA3E0FDA3E0F9
:102AD100A3E07E007F00900143EBF0EDA3F0EEA3B5
:102AE100F0EFA3F090015BE06041900143E0FBA3B4
:102AF100E0FDA3E0FEA3E0FF30E72B900143E0FB04
:102B0100A3E0FDA3E0FEA3E0FFC3E49BFBE49DFD86
:102B1100E49EFEE49FFF900143EBF0EDA3F0EEA3F2
:102B2100F0EFA3F0800590015BE4F090015F740188
:102B3100F0900160E0F555755A6D755B01E4F55251
:102B4100F553900147E4F085558212247890015F96
:102B5100E07033900147E0C454F0F557900147E02D
:102B6100C4540F4557F557855A82855B83E0FFE5CD
:102B7100574207855A82855B83EFF0155A74FFB57A
:102B81005A02155B800C900147E0FF855A82855BF4
:102B910083F00552E4B55202055390015FE0B401A0
:102BA10000E433F0900143E0FAA3E0FBA3E0FEA3CD
:102BB100E0FFEA4B4E4F708A90016EE55AF0E55BFB
:102BC100A3F0900165E552F0E553A3F0900161E0B7
:102BD100F5F0A3E045F070099001617401F0E4A300
:102BE100F0900158E0FFE07047900157E070418597
:102BF100525A85535B900161E0FAA3E0FBC007AF35
:102C01005A0F8F067F00C3EE9AEF9BD007501975BC
:102C11008220C007C003C002122401D002D003D019
:102C2100071ABAFF011B80D5900161EAF0EBA3F00E
:102C310090015BE0602075822DC007122401D0074E
:102C4100900161E024FFFDA3E034FFFE900161EDFE
:102C5100F0EEA3F08056900165E0F5F0A3E045F0B9
:102C6100604A900159E0602075822BC0071224014F
:102C7100D007900161E024FFFDA3E034FFFE900145
:102C810061EDF0EEA3F0802490015AE0601E7582A0
:102C910020C007122401D007900161E024FFFDA3A9
:102CA100E034FFFE900161EDF0EEA3F0900157E0FA
:102CB1007048900165E0F55AA3E0F55B900161E091
:102CC100FAA3E0FBC0078A068B071ABAFF011BC3F0
:102CD100E55A9EE55B9FD0075053EF60067D307E3D
:102CE1000080047D207E008D82C007C003C00212D7
:102CF1002401D002D003D00780CA900161E0FEA375
:102D0100E0FF900165E0F55AA3E0F55BC3E55A9E4B
:102D1100E55B9F500F900161EEC3955AF0EF955B13
:102D2100A3F08011900161E4F0A3F08008900161AB
:102D3100EAF0EBA3F090016EE0FEA3E0FF900165E5
:102D4100E0F55AA3E0F55BAA5AAD5B155A74FFB5DD
:102D51005A02155BEA4D604590015FE0B40100E461
:102D610033F090015FE070140EBE00010F8E828F70
:102D710083E0C4540FFD900147F0800E8E828F8353
:102D8100E0FD53050F900147EDF0900147E0F5821A
:102D9100C007C00612243CD006D00780AA90015774
:102DA100E0700302250D900161E0FEA3E0FF8E03B8
:102DB1008F051EBEFF011FEB4D700302250D7582AD
:102DC10020C007C006122401D006D00780E08C8203
:102DD10012240102250D900148E0FEA3E08E82F548
:022DE10083224B
:102DE30022AF82BF0200503EEF75F002A424F4FD2F
:102DF300740135F0FE900170E0FBA3E0FC8D828E40
:102E030083EBF0ECA3F0BF00028005BF0118800B39
:102E1300900172E024FF9288D2A822900172E0FF11
:102E230024FF928AD2AA22AF82BF02005028BF0099
:102E3300028005BF01088004C2A88002C2AAEF7500
:102E4300F002A424F4FE740135F0FF8E828F8374A4
:072E5300E3F0742DA3F0224F
:102E5B00AA82AB83122E736003A380F8C3E5829A18
:082E6B00F582E5839BF583224B
:102E730020F71430F6148883A88220F507E6A88388
:102E830075830022E280F7E49322E022C01C85814F
:102E93001CAE82E583FF33E433FD6009C3E49EFB8C
:102EA300E49FFC80048E038F04E51C24FCF808E6F1
:102EB30030E70FE51C24FCF8C3E496FE08E496FF14
:102EC300800AE51C24FCF88606088607C005C006B0
:102ED300C0078B828C83122EFDAE82AF83158115C2
:102EE30081D005ED600DC3E49EFCE49FFD8C828DD3
:102EF3008380048E828F83D01C22C01C85811CAEEC
:102F030082AF837D007C00E51C24FCF808E6235493
:102F130001FB702FE51C24FCF8E626F608E633F6E1
:102F2300E51C24FCF8C3EE96EF08965011E51C242B
:102F3300FCF808E618C313C613C608F680050C8C04
:102F43000580C4E51C24FCF8C3EE96EF0896400DFB
:102F5300E51C24FCF8EEC396FEEF0896FFE51C245F
:102F6300FCF808E618C313C613C608F68D041DEC57
:092F730070D18E828F83D01C22E4
:102F7C009001F8E0FF7E000FBF00010E7410C0E05E
:102F8C00E4C0E08F828E83122E8FAE821581158164
:102F9C009001F9E0FFEEB50701229001F8E02473EF
:102FAC00F582E43401F583E599F09001F8EEF02216
:102FBC0030054A9001FAE0FF9001FBE0FEEFB50608
:102FCC0005A205C205229001FBE02483F582E434BE
:102FDC0001F583E0F5999001FBE0FF7E000FBF0047
:102FEC00010E7410C0E0E4C0E08F828E83122E8F2D
:0E2FFC00AE82AF83158115819001FBEEF022AD
:10300A009001FCE0FF7E000FBF00010E7410C0E0CB
:10301A00E4C0E08F828E83122E8FAE8215811581D5
:10302A009001FDE0FFEEB50701229001FCE0249338
:10303A00F582E43401F583E5C1F09001FCEEF0225B
:10304A0030064A9001FEE0FF9001FFE0FEEFB50670
:10305A0005A206C206229001FFE024A3F582E43409
:10306A0001F583E0F5C19001FFE0FF7E000FBF008C
:10307A00010E7410C0E0E4C0E08F828E83122E8F9E
:0E308A00AE82AF83158115819001FFEEF0221A
:10309800C01C85811CAE82E583FF33E433FD6009E3
:1030A800C3E49EFBE49FFC80048E038F04E51C248C
:1030B800FCF808E633E433FF600FE51C24FCF8C392
:1030C800E496FA08E496FE800AE51C24FCF88602D9
:1030D800088606C007C005C002C0068B828C831212
:1030E8000E32AC82AE8315811581D005D007EF6D05
:1030F800600DC3E49CFDE49EFF8D828F8380048C69
:10310800828E83D01C227582002220F71130F6139C
:103118008883A88220F509F6A8837583002280FE9B
:05312800F280F5F02229
:10312D0010000B000F000E00200001000000140025
:10313D00000002000000050000000100000000FF7B
:10314D00000000FFFF0000FFFF0025640042544E09
:06315D007C4D55544500B5
:10316300000000000000000000000000000000015B
:103173000000000000000000000000000000030445
:103183000000020000000000010101010101010132
:103193000000020202020202020200000303030310
:1031A30003030303000004040404040404040000F0
:1031B30001020408102040800000010204081020CE
:1031C300408000000102040810204080000001023A
:1031D3000408102040800000FFFFFFFFFFFFFFFFF8
:1031E300FFFFFF00FFFF0102FFFFFFFFFFFFFFFFE6
:1031F300FFFFFFFFFFFFFFFF03FFFFFFFFFFFFFFD8
:1032030012011001EF020108091250C50101010268
:103213000301090246000201008064080B00020258
:103223000201040904000001020201040524001044
:103233000104240202052406000107058103080096
:103243004009040100020A000004070502024000CD
:103253000007058202400000040309040C03430035
:103263004800350035007800160343004800350058
:10327300350078006400750069006E006F00160366
:1032830043004400430020005300650072006900BE
:1032930061006C000E0344006500710069006E005C
:0232A3006700C2
:0B32A5003C4E4F20464C4F41543E0071
:1032B0004F100000000000000000000000000000AF
:1032C000000001000100591972F1B801000000006E
:1032D000FFFF0000000000000000000000000000F0
:0332E000000001EA
:0232E3000000E9
:0B32E50000E1000000000800000000F5
:0432F000E32DE32DBA
:0432F40000000000D6
:0432F80000000000D2
:00000001FF
